{
  "_format": "hh-sol-artifact-1",
  "contractName": "Medical",
  "sourceName": "contracts/Medical.sol",
  "abi": [
    {
      "inputs": [
        {
          "internalType": "address",
          "name": "_healthTokenAddress",
          "type": "address"
        }
      ],
      "stateMutability": "nonpayable",
      "type": "constructor"
    },
    {
      "anonymous": false,
      "inputs": [
        {
          "indexed": false,
          "internalType": "address",
          "name": "doctorAddress",
          "type": "address"
        },
        {
          "indexed": false,
          "internalType": "string",
          "name": "name",
          "type": "string"
        },
        {
          "indexed": false,
          "internalType": "uint256",
          "name": "fees",
          "type": "uint256"
        }
      ],
      "name": "DoctorRegistered",
      "type": "event"
    },
    {
      "anonymous": false,
      "inputs": [
        {
          "indexed": true,
          "internalType": "address",
          "name": "patient",
          "type": "address"
        },
        {
          "indexed": true,
          "internalType": "address",
          "name": "doctor",
          "type": "address"
        },
        {
          "indexed": false,
          "internalType": "uint256",
          "name": "amount",
          "type": "uint256"
        }
      ],
      "name": "PaymentReceived",
      "type": "event"
    },
    {
      "anonymous": false,
      "inputs": [
        {
          "indexed": false,
          "internalType": "uint256",
          "name": "id",
          "type": "uint256"
        },
        {
          "indexed": false,
          "internalType": "address",
          "name": "doctorAddress",
          "type": "address"
        },
        {
          "indexed": false,
          "internalType": "address",
          "name": "patientAddress",
          "type": "address"
        },
        {
          "indexed": false,
          "internalType": "string",
          "name": "diagnosis",
          "type": "string"
        }
      ],
      "name": "PrescriptionIssued",
      "type": "event"
    },
    {
      "anonymous": false,
      "inputs": [
        {
          "indexed": true,
          "internalType": "address",
          "name": "doctor",
          "type": "address"
        },
        {
          "indexed": false,
          "internalType": "uint256",
          "name": "tokenAmount",
          "type": "uint256"
        },
        {
          "indexed": false,
          "internalType": "uint256",
          "name": "ethAmount",
          "type": "uint256"
        }
      ],
      "name": "TokensWithdrawn",
      "type": "event"
    },
    {
      "inputs": [
        {
          "internalType": "address",
          "name": "",
          "type": "address"
        }
      ],
      "name": "doctors",
      "outputs": [
        {
          "internalType": "address",
          "name": "doctorAddress",
          "type": "address"
        },
        {
          "internalType": "string",
          "name": "name",
          "type": "string"
        },
        {
          "internalType": "string",
          "name": "speciality",
          "type": "string"
        },
        {
          "internalType": "uint256",
          "name": "fees",
          "type": "uint256"
        },
        {
          "internalType": "uint256",
          "name": "tokenBalance",
          "type": "uint256"
        },
        {
          "internalType": "bool",
          "name": "verified",
          "type": "bool"
        }
      ],
      "stateMutability": "view",
      "type": "function"
    },
    {
      "inputs": [
        {
          "internalType": "address",
          "name": "doctorAddress",
          "type": "address"
        }
      ],
      "name": "getDoctorFee",
      "outputs": [
        {
          "internalType": "uint256",
          "name": "",
          "type": "uint256"
        }
      ],
      "stateMutability": "view",
      "type": "function"
    },
    {
      "inputs": [],
      "name": "healthToken",
      "outputs": [
        {
          "internalType": "contract HealthToken",
          "name": "",
          "type": "address"
        }
      ],
      "stateMutability": "view",
      "type": "function"
    },
    {
      "inputs": [
        {
          "internalType": "address",
          "name": "patientAddress",
          "type": "address"
        },
        {
          "components": [
            {
              "internalType": "string",
              "name": "name",
              "type": "string"
            },
            {
              "internalType": "string",
              "name": "dosage",
              "type": "string"
            },
            {
              "internalType": "uint256",
              "name": "duration",
              "type": "uint256"
            },
            {
              "internalType": "string",
              "name": "additionalInstructions",
              "type": "string"
            }
          ],
          "internalType": "struct Medical.Medication[]",
          "name": "medications",
          "type": "tuple[]"
        },
        {
          "internalType": "string",
          "name": "diagnosis",
          "type": "string"
        }
      ],
      "name": "issuePrescription",
      "outputs": [],
      "stateMutability": "nonpayable",
      "type": "function"
    },
    {
      "inputs": [],
      "name": "owner",
      "outputs": [
        {
          "internalType": "address",
          "name": "",
          "type": "address"
        }
      ],
      "stateMutability": "view",
      "type": "function"
    },
    {
      "inputs": [
        {
          "internalType": "address",
          "name": "",
          "type": "address"
        }
      ],
      "name": "patients",
      "outputs": [
        {
          "internalType": "address",
          "name": "patientAddress",
          "type": "address"
        },
        {
          "internalType": "string",
          "name": "name",
          "type": "string"
        }
      ],
      "stateMutability": "view",
      "type": "function"
    },
    {
      "inputs": [
        {
          "internalType": "address",
          "name": "doctorAddress",
          "type": "address"
        },
        {
          "internalType": "uint256",
          "name": "amount",
          "type": "uint256"
        }
      ],
      "name": "payDoctor",
      "outputs": [],
      "stateMutability": "nonpayable",
      "type": "function"
    },
    {
      "inputs": [],
      "name": "prescriptionCounter",
      "outputs": [
        {
          "internalType": "uint256",
          "name": "",
          "type": "uint256"
        }
      ],
      "stateMutability": "view",
      "type": "function"
    },
    {
      "inputs": [
        {
          "internalType": "uint256",
          "name": "",
          "type": "uint256"
        }
      ],
      "name": "prescriptions",
      "outputs": [
        {
          "internalType": "uint256",
          "name": "id",
          "type": "uint256"
        },
        {
          "internalType": "address",
          "name": "doctorAddress",
          "type": "address"
        },
        {
          "internalType": "address",
          "name": "patientAddress",
          "type": "address"
        },
        {
          "internalType": "uint256",
          "name": "issueDate",
          "type": "uint256"
        },
        {
          "internalType": "string",
          "name": "diagnosis",
          "type": "string"
        },
        {
          "internalType": "bool",
          "name": "active",
          "type": "bool"
        }
      ],
      "stateMutability": "view",
      "type": "function"
    },
    {
      "inputs": [
        {
          "internalType": "string",
          "name": "name",
          "type": "string"
        },
        {
          "internalType": "string",
          "name": "speciality",
          "type": "string"
        },
        {
          "internalType": "uint256",
          "name": "fees",
          "type": "uint256"
        }
      ],
      "name": "registerDoctor",
      "outputs": [],
      "stateMutability": "nonpayable",
      "type": "function"
    },
    {
      "inputs": [
        {
          "internalType": "string",
          "name": "name",
          "type": "string"
        }
      ],
      "name": "registerPatient",
      "outputs": [],
      "stateMutability": "nonpayable",
      "type": "function"
    },
    {
      "inputs": [
        {
          "internalType": "uint256",
          "name": "tokenAmount",
          "type": "uint256"
        }
      ],
      "name": "withdrawTokens",
      "outputs": [],
      "stateMutability": "nonpayable",
      "type": "function"
    }
  ],
  "bytecode": "0x60806040523480156200001157600080fd5b50604051620027ab380380620027ab83398181016040528101906200003791906200019b565b600073ffffffffffffffffffffffffffffffffffffffff168173ffffffffffffffffffffffffffffffffffffffff1603620000a9576040517f08c379a0000000000000000000000000000000000000000000000000000000008152600401620000a09062000254565b60405180910390fd5b806000806101000a81548173ffffffffffffffffffffffffffffffffffffffff021916908373ffffffffffffffffffffffffffffffffffffffff16021790555033600160006101000a81548173ffffffffffffffffffffffffffffffffffffffff021916908373ffffffffffffffffffffffffffffffffffffffff1602179055505062000276565b600080fd5b600073ffffffffffffffffffffffffffffffffffffffff82169050919050565b6000620001638262000136565b9050919050565b620001758162000156565b81146200018157600080fd5b50565b60008151905062000195816200016a565b92915050565b600060208284031215620001b457620001b362000131565b5b6000620001c48482850162000184565b91505092915050565b600082825260208201905092915050565b7f4865616c7468546f6b656e20616464726573732063616e6e6f74206265207a6560008201527f726f000000000000000000000000000000000000000000000000000000000000602082015250565b60006200023c602283620001cd565b91506200024982620001de565b604082019050919050565b600060208201905081810360008301526200026f816200022d565b9050919050565b61252580620002866000396000f3fe608060405234801561001057600080fd5b50600436106100b45760003560e01c806387446b6e1161007157806387446b6e146101915780638da5cb5b146101ad578063a9583c22146101cb578063b1f8a65314610200578063c6b0ac851461021c578063ee424df51461023a576100b4565b80630869cfbc146100b9578063315a095d146100ea57806331dfc91b1461010657806372bb073e1461013b57806382a7fa4a14610157578063869c9eaf14610175575b600080fd5b6100d360048036038101906100ce919061141b565b61026a565b6040516100e19291906114e7565b60405180910390f35b61010460048036038101906100ff919061154d565b610336565b005b610120600480360381019061011b919061154d565b610638565b604051610132969594939291906115a4565b60405180910390f35b610155600480360381019061015091906118fd565b610749565b005b61015f610aa0565b60405161016c9190611988565b60405180910390f35b61018f600480360381019061018a91906119a3565b610aa6565b005b6101ab60048036038101906101a691906119ec565b610bb7565b005b6101b5610db7565b6040516101c29190611a77565b60405180910390f35b6101e560048036038101906101e0919061141b565b610ddd565b6040516101f796959493929190611a92565b60405180910390f35b61021a60048036038101906102159190611b01565b610f56565b005b6102246112a8565b6040516102319190611ba0565b60405180910390f35b610254600480360381019061024f919061141b565b6112cc565b6040516102619190611988565b60405180910390f35b60036020528060005260406000206000915090508060000160009054906101000a900473ffffffffffffffffffffffffffffffffffffffff16908060010180546102b390611bea565b80601f01602080910402602001604051908101604052809291908181526020018280546102df90611bea565b801561032c5780601f106103015761010080835404028352916020019161032c565b820191906000526020600020905b81548152906001019060200180831161030f57829003601f168201915b5050505050905082565b600260003373ffffffffffffffffffffffffffffffffffffffff1673ffffffffffffffffffffffffffffffffffffffff16815260200190815260200160002060050160009054906101000a900460ff166103c5576040517f08c379a00000000000000000000000000000000000000000000000000000000081526004016103bc90611c67565b60405180910390fd5b6000600260003373ffffffffffffffffffffffffffffffffffffffff1673ffffffffffffffffffffffffffffffffffffffff1681526020019081526020016000209050818160040154101561044f576040517f08c379a000000000000000000000000000000000000000000000000000000000815260040161044690611cd3565b60405180910390fd5b600060648361045e9190611d51565b9050828260040160008282546104749190611d82565b9250508190555060008054906101000a900473ffffffffffffffffffffffffffffffffffffffff1673ffffffffffffffffffffffffffffffffffffffff1663a9059cbb60008054906101000a900473ffffffffffffffffffffffffffffffffffffffff16856040518363ffffffff1660e01b81526004016104f6929190611db6565b6020604051808303816000875af1158015610515573d6000803e3d6000fd5b505050506040513d601f19601f820116820180604052508101906105399190611e0b565b610578576040517f08c379a000000000000000000000000000000000000000000000000000000000815260040161056f90611e84565b60405180910390fd5b8160000160009054906101000a900473ffffffffffffffffffffffffffffffffffffffff1673ffffffffffffffffffffffffffffffffffffffff166108fc829081150290604051600060405180830381858888f193505050501580156105e2573d6000803e3d6000fd5b503373ffffffffffffffffffffffffffffffffffffffff167fffe903c0abe6b2dbb2f3474ef43d7a3c1fca49e5a774453423ca8e1952aabffa848360405161062b929190611ea4565b60405180910390a2505050565b60046020528060005260406000206000915090508060000154908060010160009054906101000a900473ffffffffffffffffffffffffffffffffffffffff16908060020160009054906101000a900473ffffffffffffffffffffffffffffffffffffffff16908060040154908060050180546106b390611bea565b80601f01602080910402602001604051908101604052809291908181526020018280546106df90611bea565b801561072c5780601f106107015761010080835404028352916020019161072c565b820191906000526020600020905b81548152906001019060200180831161070f57829003601f168201915b5050505050908060060160009054906101000a900460ff16905086565b600260003373ffffffffffffffffffffffffffffffffffffffff1673ffffffffffffffffffffffffffffffffffffffff16815260200190815260200160002060050160009054906101000a900460ff166107d8576040517f08c379a00000000000000000000000000000000000000000000000000000000081526004016107cf90611c67565b60405180910390fd5b82600073ffffffffffffffffffffffffffffffffffffffff16600360008373ffffffffffffffffffffffffffffffffffffffff1673ffffffffffffffffffffffffffffffffffffffff16815260200190815260200160002060000160009054906101000a900473ffffffffffffffffffffffffffffffffffffffff1673ffffffffffffffffffffffffffffffffffffffff16036108aa576040517f08c379a00000000000000000000000000000000000000000000000000000000081526004016108a190611f19565b60405180910390fd5b600560008154809291906108bd90611f39565b9190505550600060046000600554815260200190815260200160002090506005548160000181905550338160010160006101000a81548173ffffffffffffffffffffffffffffffffffffffff021916908373ffffffffffffffffffffffffffffffffffffffff160217905550848160020160006101000a81548173ffffffffffffffffffffffffffffffffffffffff021916908373ffffffffffffffffffffffffffffffffffffffff160217905550428160040181905550828160050190816109869190612123565b5060018160060160006101000a81548160ff02191690831515021790555060005b8451811015610a5957816003018582815181106109c7576109c66121f5565b5b602002602001015190806001815401808255809150506001900390600052602060002090600402016000909190919091506000820151816000019081610a0d9190612123565b506020820151816001019081610a239190612123565b50604082015181600201556060820151816003019081610a439190612123565b5050508080610a5190611f39565b9150506109a7565b507f271c79974d634e0645e988cdbe7a9156534689d0594e3bcac9b3ac1ef9e91dda600554338786604051610a919493929190612224565b60405180910390a15050505050565b60055481565b6000815111610aea576040517f08c379a0000000000000000000000000000000000000000000000000000000008152600401610ae1906122bc565b60405180910390fd5b60405180604001604052803373ffffffffffffffffffffffffffffffffffffffff16815260200182815250600360003373ffffffffffffffffffffffffffffffffffffffff1673ffffffffffffffffffffffffffffffffffffffff16815260200190815260200160002060008201518160000160006101000a81548173ffffffffffffffffffffffffffffffffffffffff021916908373ffffffffffffffffffffffffffffffffffffffff1602179055506020820151816001019081610bb09190612123565b5090505050565b600260003373ffffffffffffffffffffffffffffffffffffffff1673ffffffffffffffffffffffffffffffffffffffff16815260200190815260200160002060050160009054906101000a900460ff1615610c47576040517f08c379a0000000000000000000000000000000000000000000000000000000008152600401610c3e90612328565b60405180910390fd5b6040518060c001604052803373ffffffffffffffffffffffffffffffffffffffff1681526020018481526020018381526020018281526020016000815260200160011515815250600260003373ffffffffffffffffffffffffffffffffffffffff1673ffffffffffffffffffffffffffffffffffffffff16815260200190815260200160002060008201518160000160006101000a81548173ffffffffffffffffffffffffffffffffffffffff021916908373ffffffffffffffffffffffffffffffffffffffff1602179055506020820151816001019081610d299190612123565b506040820151816002019081610d3f9190612123565b50606082015181600301556080820151816004015560a08201518160050160006101000a81548160ff0219169083151502179055509050507f1f5e33d2573da99a901bca6b2c06d5f12b75dfd179bcbbe46a5216cf8349ee6b338483604051610daa93929190612348565b60405180910390a1505050565b600160009054906101000a900473ffffffffffffffffffffffffffffffffffffffff1681565b60026020528060005260406000206000915090508060000160009054906101000a900473ffffffffffffffffffffffffffffffffffffffff1690806001018054610e2690611bea565b80601f0160208091040260200160405190810160405280929190818152602001828054610e5290611bea565b8015610e9f5780601f10610e7457610100808354040283529160200191610e9f565b820191906000526020600020905b815481529060010190602001808311610e8257829003601f168201915b505050505090806002018054610eb490611bea565b80601f0160208091040260200160405190810160405280929190818152602001828054610ee090611bea565b8015610f2d5780601f10610f0257610100808354040283529160200191610f2d565b820191906000526020600020905b815481529060010190602001808311610f1057829003601f168201915b5050505050908060030154908060040154908060050160009054906101000a900460ff16905086565b81600260008273ffffffffffffffffffffffffffffffffffffffff1673ffffffffffffffffffffffffffffffffffffffff16815260200190815260200160002060050160009054906101000a900460ff16610fe6576040517f08c379a0000000000000000000000000000000000000000000000000000000008152600401610fdd906123f8565b60405180910390fd5b33600073ffffffffffffffffffffffffffffffffffffffff16600360008373ffffffffffffffffffffffffffffffffffffffff1673ffffffffffffffffffffffffffffffffffffffff16815260200190815260200160002060000160009054906101000a900473ffffffffffffffffffffffffffffffffffffffff1673ffffffffffffffffffffffffffffffffffffffff16036110b8576040517f08c379a00000000000000000000000000000000000000000000000000000000081526004016110af90611f19565b60405180910390fd5b6000600260008673ffffffffffffffffffffffffffffffffffffffff1673ffffffffffffffffffffffffffffffffffffffff16815260200190815260200160002090508060030154841015611142576040517f08c379a000000000000000000000000000000000000000000000000000000000815260040161113990612464565b60405180910390fd5b60008054906101000a900473ffffffffffffffffffffffffffffffffffffffff1673ffffffffffffffffffffffffffffffffffffffff166323b872dd3330876040518463ffffffff1660e01b815260040161119f93929190612484565b6020604051808303816000875af11580156111be573d6000803e3d6000fd5b505050506040513d601f19601f820116820180604052508101906111e29190611e0b565b611221576040517f08c379a000000000000000000000000000000000000000000000000000000000815260040161121890611e84565b60405180910390fd5b8381600401600082825461123591906124bb565b925050819055508473ffffffffffffffffffffffffffffffffffffffff163373ffffffffffffffffffffffffffffffffffffffff167f45fdc265dc29885b9a485766b03e70978440d38c7c328ee0a14fa40c76c6af54866040516112999190611988565b60405180910390a35050505050565b60008054906101000a900473ffffffffffffffffffffffffffffffffffffffff1681565b600081600260008273ffffffffffffffffffffffffffffffffffffffff1673ffffffffffffffffffffffffffffffffffffffff16815260200190815260200160002060050160009054906101000a900460ff1661135e576040517f08c379a0000000000000000000000000000000000000000000000000000000008152600401611355906123f8565b60405180910390fd5b600260008473ffffffffffffffffffffffffffffffffffffffff1673ffffffffffffffffffffffffffffffffffffffff16815260200190815260200160002060030154915050919050565b6000604051905090565b600080fd5b600080fd5b600073ffffffffffffffffffffffffffffffffffffffff82169050919050565b60006113e8826113bd565b9050919050565b6113f8816113dd565b811461140357600080fd5b50565b600081359050611415816113ef565b92915050565b600060208284031215611431576114306113b3565b5b600061143f84828501611406565b91505092915050565b611451816113dd565b82525050565b600081519050919050565b600082825260208201905092915050565b60005b83811015611491578082015181840152602081019050611476565b60008484015250505050565b6000601f19601f8301169050919050565b60006114b982611457565b6114c38185611462565b93506114d3818560208601611473565b6114dc8161149d565b840191505092915050565b60006040820190506114fc6000830185611448565b818103602083015261150e81846114ae565b90509392505050565b6000819050919050565b61152a81611517565b811461153557600080fd5b50565b60008135905061154781611521565b92915050565b600060208284031215611563576115626113b3565b5b600061157184828501611538565b91505092915050565b61158381611517565b82525050565b60008115159050919050565b61159e81611589565b82525050565b600060c0820190506115b9600083018961157a565b6115c66020830188611448565b6115d36040830187611448565b6115e0606083018661157a565b81810360808301526115f281856114ae565b905061160160a0830184611595565b979650505050505050565b600080fd5b7f4e487b7100000000000000000000000000000000000000000000000000000000600052604160045260246000fd5b6116498261149d565b810181811067ffffffffffffffff8211171561166857611667611611565b5b80604052505050565b600061167b6113a9565b90506116878282611640565b919050565b600067ffffffffffffffff8211156116a7576116a6611611565b5b602082029050602081019050919050565b600080fd5b600080fd5b600080fd5b600080fd5b600067ffffffffffffffff8211156116e7576116e6611611565b5b6116f08261149d565b9050602081019050919050565b82818337600083830152505050565b600061171f61171a846116cc565b611671565b90508281526020810184848401111561173b5761173a6116c7565b5b6117468482856116fd565b509392505050565b600082601f8301126117635761176261160c565b5b813561177384826020860161170c565b91505092915050565b600060808284031215611792576117916116bd565b5b61179c6080611671565b9050600082013567ffffffffffffffff8111156117bc576117bb6116c2565b5b6117c88482850161174e565b600083015250602082013567ffffffffffffffff8111156117ec576117eb6116c2565b5b6117f88482850161174e565b602083015250604061180c84828501611538565b604083015250606082013567ffffffffffffffff8111156118305761182f6116c2565b5b61183c8482850161174e565b60608301525092915050565b600061185b6118568461168c565b611671565b9050808382526020820190506020840283018581111561187e5761187d6116b8565b5b835b818110156118c557803567ffffffffffffffff8111156118a3576118a261160c565b5b8086016118b0898261177c565b85526020850194505050602081019050611880565b5050509392505050565b600082601f8301126118e4576118e361160c565b5b81356118f4848260208601611848565b91505092915050565b600080600060608486031215611916576119156113b3565b5b600061192486828701611406565b935050602084013567ffffffffffffffff811115611945576119446113b8565b5b611951868287016118cf565b925050604084013567ffffffffffffffff811115611972576119716113b8565b5b61197e8682870161174e565b9150509250925092565b600060208201905061199d600083018461157a565b92915050565b6000602082840312156119b9576119b86113b3565b5b600082013567ffffffffffffffff8111156119d7576119d66113b8565b5b6119e38482850161174e565b91505092915050565b600080600060608486031215611a0557611a046113b3565b5b600084013567ffffffffffffffff811115611a2357611a226113b8565b5b611a2f8682870161174e565b935050602084013567ffffffffffffffff811115611a5057611a4f6113b8565b5b611a5c8682870161174e565b9250506040611a6d86828701611538565b9150509250925092565b6000602082019050611a8c6000830184611448565b92915050565b600060c082019050611aa76000830189611448565b8181036020830152611ab981886114ae565b90508181036040830152611acd81876114ae565b9050611adc606083018661157a565b611ae9608083018561157a565b611af660a0830184611595565b979650505050505050565b60008060408385031215611b1857611b176113b3565b5b6000611b2685828601611406565b9250506020611b3785828601611538565b9150509250929050565b6000819050919050565b6000611b66611b61611b5c846113bd565b611b41565b6113bd565b9050919050565b6000611b7882611b4b565b9050919050565b6000611b8a82611b6d565b9050919050565b611b9a81611b7f565b82525050565b6000602082019050611bb56000830184611b91565b92915050565b7f4e487b7100000000000000000000000000000000000000000000000000000000600052602260045260246000fd5b60006002820490506001821680611c0257607f821691505b602082108103611c1557611c14611bbb565b5b50919050565b7f4e6f74206120766572696669656420646f63746f720000000000000000000000600082015250565b6000611c51601583611462565b9150611c5c82611c1b565b602082019050919050565b60006020820190508181036000830152611c8081611c44565b9050919050565b7f496e73756666696369656e7420746f6b656e2062616c616e6365000000000000600082015250565b6000611cbd601a83611462565b9150611cc882611c87565b602082019050919050565b60006020820190508181036000830152611cec81611cb0565b9050919050565b7f4e487b7100000000000000000000000000000000000000000000000000000000600052601260045260246000fd5b7f4e487b7100000000000000000000000000000000000000000000000000000000600052601160045260246000fd5b6000611d5c82611517565b9150611d6783611517565b925082611d7757611d76611cf3565b5b828204905092915050565b6000611d8d82611517565b9150611d9883611517565b9250828203905081811115611db057611daf611d22565b5b92915050565b6000604082019050611dcb6000830185611448565b611dd8602083018461157a565b9392505050565b611de881611589565b8114611df357600080fd5b50565b600081519050611e0581611ddf565b92915050565b600060208284031215611e2157611e206113b3565b5b6000611e2f84828501611df6565b91505092915050565b7f546f6b656e207472616e73666572206661696c65640000000000000000000000600082015250565b6000611e6e601583611462565b9150611e7982611e38565b602082019050919050565b60006020820190508181036000830152611e9d81611e61565b9050919050565b6000604082019050611eb9600083018561157a565b611ec6602083018461157a565b9392505050565b7f50617469656e74206973206e6f74207265676973746572656400000000000000600082015250565b6000611f03601983611462565b9150611f0e82611ecd565b602082019050919050565b60006020820190508181036000830152611f3281611ef6565b9050919050565b6000611f4482611517565b91507fffffffffffffffffffffffffffffffffffffffffffffffffffffffffffffffff8203611f7657611f75611d22565b5b600182019050919050565b60008190508160005260206000209050919050565b60006020601f8301049050919050565b600082821b905092915050565b600060088302611fe37fffffffffffffffffffffffffffffffffffffffffffffffffffffffffffffffff82611fa6565b611fed8683611fa6565b95508019841693508086168417925050509392505050565b600061202061201b61201684611517565b611b41565b611517565b9050919050565b6000819050919050565b61203a83612005565b61204e61204682612027565b848454611fb3565b825550505050565b600090565b612063612056565b61206e818484612031565b505050565b5b818110156120925761208760008261205b565b600181019050612074565b5050565b601f8211156120d7576120a881611f81565b6120b184611f96565b810160208510156120c0578190505b6120d46120cc85611f96565b830182612073565b50505b505050565b600082821c905092915050565b60006120fa600019846008026120dc565b1980831691505092915050565b600061211383836120e9565b9150826002028217905092915050565b61212c82611457565b67ffffffffffffffff81111561214557612144611611565b5b61214f8254611bea565b61215a828285612096565b600060209050601f83116001811461218d576000841561217b578287015190505b6121858582612107565b8655506121ed565b601f19841661219b86611f81565b60005b828110156121c35784890151825560018201915060208501945060208101905061219e565b868310156121e057848901516121dc601f8916826120e9565b8355505b6001600288020188555050505b505050505050565b7f4e487b7100000000000000000000000000000000000000000000000000000000600052603260045260246000fd5b6000608082019050612239600083018761157a565b6122466020830186611448565b6122536040830185611448565b818103606083015261226581846114ae565b905095945050505050565b7f4e616d6520726571756972656400000000000000000000000000000000000000600082015250565b60006122a6600d83611462565b91506122b182612270565b602082019050919050565b600060208201905081810360008301526122d581612299565b9050919050565b7f446f63746f7220616c7265616479207265676973746572656400000000000000600082015250565b6000612312601983611462565b915061231d826122dc565b602082019050919050565b6000602082019050818103600083015261234181612305565b9050919050565b600060608201905061235d6000830186611448565b818103602083015261236f81856114ae565b905061237e604083018461157a565b949350505050565b7f446f63746f72206973206e6f742072656769737465726564206f72207665726960008201527f6669656400000000000000000000000000000000000000000000000000000000602082015250565b60006123e2602483611462565b91506123ed82612386565b604082019050919050565b60006020820190508181036000830152612411816123d5565b9050919050565b7f496e73756666696369656e74207061796d656e7420616d6f756e740000000000600082015250565b600061244e601b83611462565b915061245982612418565b602082019050919050565b6000602082019050818103600083015261247d81612441565b9050919050565b60006060820190506124996000830186611448565b6124a66020830185611448565b6124b3604083018461157a565b949350505050565b60006124c682611517565b91506124d183611517565b92508282019050808211156124e9576124e8611d22565b5b9291505056fea26469706673582212203847987b08704dc925bda96f5376c0d6cbdb2640a45e67e685779eb1f2a4ada064736f6c63430008140033",
  "linkReferences": {},
  "deployedLinkReferences": {}
}