{
  "_format": "hh-sol-artifact-1",
  "contractName": "MedicalWithZK",
  "sourceName": "contracts/MedicalWithZK.sol",
  "abi": [
    {
      "inputs": [
        {
          "internalType": "address",
          "name": "_healthTokenAddress",
          "type": "address"
        },
        {
          "internalType": "address",
          "name": "_zkVerifierAddress",
          "type": "address"
        }
      ],
      "stateMutability": "nonpayable",
      "type": "constructor"
    },
    {
      "anonymous": false,
      "inputs": [
        {
          "indexed": false,
          "internalType": "uint256",
          "name": "id",
          "type": "uint256"
        },
        {
          "indexed": false,
          "internalType": "address",
          "name": "doctorAddress",
          "type": "address"
        },
        {
          "indexed": false,
          "internalType": "uint256",
          "name": "zkId",
          "type": "uint256"
        }
      ],
      "name": "AnonymousPrescriptionCreated",
      "type": "event"
    },
    {
      "anonymous": false,
      "inputs": [
        {
          "indexed": false,
          "internalType": "address",
          "name": "doctorAddress",
          "type": "address"
        },
        {
          "indexed": false,
          "internalType": "string",
          "name": "name",
          "type": "string"
        },
        {
          "indexed": false,
          "internalType": "uint256",
          "name": "fees",
          "type": "uint256"
        }
      ],
      "name": "DoctorRegistered",
      "type": "event"
    },
    {
      "anonymous": false,
      "inputs": [
        {
          "indexed": true,
          "internalType": "address",
          "name": "patient",
          "type": "address"
        },
        {
          "indexed": true,
          "internalType": "address",
          "name": "doctor",
          "type": "address"
        },
        {
          "indexed": false,
          "internalType": "uint256",
          "name": "amount",
          "type": "uint256"
        }
      ],
      "name": "PaymentReceived",
      "type": "event"
    },
    {
      "anonymous": false,
      "inputs": [
        {
          "indexed": false,
          "internalType": "uint256",
          "name": "id",
          "type": "uint256"
        },
        {
          "indexed": false,
          "internalType": "address",
          "name": "doctorAddress",
          "type": "address"
        },
        {
          "indexed": false,
          "internalType": "address",
          "name": "patientAddress",
          "type": "address"
        },
        {
          "indexed": false,
          "internalType": "string",
          "name": "diagnosis",
          "type": "string"
        }
      ],
      "name": "PrescriptionIssued",
      "type": "event"
    },
    {
      "anonymous": false,
      "inputs": [
        {
          "indexed": true,
          "internalType": "address",
          "name": "doctor",
          "type": "address"
        },
        {
          "indexed": false,
          "internalType": "uint256",
          "name": "tokenAmount",
          "type": "uint256"
        },
        {
          "indexed": false,
          "internalType": "uint256",
          "name": "ethAmount",
          "type": "uint256"
        }
      ],
      "name": "TokensWithdrawn",
      "type": "event"
    },
    {
      "inputs": [
        {
          "internalType": "address",
          "name": "",
          "type": "address"
        },
        {
          "internalType": "uint256",
          "name": "",
          "type": "uint256"
        }
      ],
      "name": "doctorAnonymousPrescriptions",
      "outputs": [
        {
          "internalType": "uint256",
          "name": "",
          "type": "uint256"
        }
      ],
      "stateMutability": "view",
      "type": "function"
    },
    {
      "inputs": [
        {
          "internalType": "address",
          "name": "",
          "type": "address"
        }
      ],
      "name": "doctors",
      "outputs": [
        {
          "internalType": "address",
          "name": "doctorAddress",
          "type": "address"
        },
        {
          "internalType": "string",
          "name": "name",
          "type": "string"
        },
        {
          "internalType": "string",
          "name": "speciality",
          "type": "string"
        },
        {
          "internalType": "uint256",
          "name": "fees",
          "type": "uint256"
        },
        {
          "internalType": "uint256",
          "name": "tokenBalance",
          "type": "uint256"
        },
        {
          "internalType": "bool",
          "name": "verified",
          "type": "bool"
        }
      ],
      "stateMutability": "view",
      "type": "function"
    },
    {
      "inputs": [
        {
          "internalType": "address",
          "name": "doctorAddress",
          "type": "address"
        }
      ],
      "name": "getDoctorAnonymousPrescriptions",
      "outputs": [
        {
          "internalType": "uint256[]",
          "name": "",
          "type": "uint256[]"
        }
      ],
      "stateMutability": "view",
      "type": "function"
    },
    {
      "inputs": [
        {
          "internalType": "address",
          "name": "doctorAddress",
          "type": "address"
        }
      ],
      "name": "getDoctorFee",
      "outputs": [
        {
          "internalType": "uint256",
          "name": "",
          "type": "uint256"
        }
      ],
      "stateMutability": "view",
      "type": "function"
    },
    {
      "inputs": [
        {
          "internalType": "uint256",
          "name": "prescriptionId",
          "type": "uint256"
        }
      ],
      "name": "getPrescriptionDetails",
      "outputs": [
        {
          "internalType": "uint256",
          "name": "id",
          "type": "uint256"
        },
        {
          "internalType": "address",
          "name": "doctorAddress",
          "type": "address"
        },
        {
          "internalType": "address",
          "name": "patientAddress",
          "type": "address"
        },
        {
          "internalType": "uint256",
          "name": "issueDate",
          "type": "uint256"
        },
        {
          "internalType": "string",
          "name": "diagnosis",
          "type": "string"
        },
        {
          "internalType": "bool",
          "name": "active",
          "type": "bool"
        },
        {
          "internalType": "bool",
          "name": "isAnonymous",
          "type": "bool"
        }
      ],
      "stateMutability": "view",
      "type": "function"
    },
    {
      "inputs": [],
      "name": "healthToken",
      "outputs": [
        {
          "internalType": "contract HealthToken",
          "name": "",
          "type": "address"
        }
      ],
      "stateMutability": "view",
      "type": "function"
    },
    {
      "inputs": [
        {
          "components": [
            {
              "internalType": "string",
              "name": "name",
              "type": "string"
            },
            {
              "internalType": "string",
              "name": "dosage",
              "type": "string"
            },
            {
              "internalType": "uint256",
              "name": "duration",
              "type": "uint256"
            },
            {
              "internalType": "string",
              "name": "additionalInstructions",
              "type": "string"
            }
          ],
          "internalType": "struct MedicalWithZK.Medication[]",
          "name": "medications",
          "type": "tuple[]"
        },
        {
          "internalType": "string",
          "name": "diagnosis",
          "type": "string"
        },
        {
          "internalType": "uint256[8]",
          "name": "commitment",
          "type": "uint256[8]"
        },
        {
          "internalType": "uint256[2]",
          "name": "a",
          "type": "uint256[2]"
        },
        {
          "internalType": "uint256[2][2]",
          "name": "b",
          "type": "uint256[2][2]"
        },
        {
          "internalType": "uint256[2]",
          "name": "c",
          "type": "uint256[2]"
        },
        {
          "internalType": "uint256[9]",
          "name": "input",
          "type": "uint256[9]"
        }
      ],
      "name": "issueAnonymousPrescription",
      "outputs": [],
      "stateMutability": "nonpayable",
      "type": "function"
    },
    {
      "inputs": [
        {
          "internalType": "address",
          "name": "patientAddress",
          "type": "address"
        },
        {
          "components": [
            {
              "internalType": "string",
              "name": "name",
              "type": "string"
            },
            {
              "internalType": "string",
              "name": "dosage",
              "type": "string"
            },
            {
              "internalType": "uint256",
              "name": "duration",
              "type": "uint256"
            },
            {
              "internalType": "string",
              "name": "additionalInstructions",
              "type": "string"
            }
          ],
          "internalType": "struct MedicalWithZK.Medication[]",
          "name": "medications",
          "type": "tuple[]"
        },
        {
          "internalType": "string",
          "name": "diagnosis",
          "type": "string"
        }
      ],
      "name": "issuePrescription",
      "outputs": [],
      "stateMutability": "nonpayable",
      "type": "function"
    },
    {
      "inputs": [],
      "name": "owner",
      "outputs": [
        {
          "internalType": "address",
          "name": "",
          "type": "address"
        }
      ],
      "stateMutability": "view",
      "type": "function"
    },
    {
      "inputs": [
        {
          "internalType": "address",
          "name": "",
          "type": "address"
        }
      ],
      "name": "patients",
      "outputs": [
        {
          "internalType": "address",
          "name": "patientAddress",
          "type": "address"
        },
        {
          "internalType": "string",
          "name": "name",
          "type": "string"
        }
      ],
      "stateMutability": "view",
      "type": "function"
    },
    {
      "inputs": [
        {
          "internalType": "address",
          "name": "doctorAddress",
          "type": "address"
        },
        {
          "internalType": "uint256",
          "name": "amount",
          "type": "uint256"
        }
      ],
      "name": "payDoctor",
      "outputs": [],
      "stateMutability": "nonpayable",
      "type": "function"
    },
    {
      "inputs": [],
      "name": "prescriptionCounter",
      "outputs": [
        {
          "internalType": "uint256",
          "name": "",
          "type": "uint256"
        }
      ],
      "stateMutability": "view",
      "type": "function"
    },
    {
      "inputs": [
        {
          "internalType": "uint256",
          "name": "",
          "type": "uint256"
        }
      ],
      "name": "prescriptionToZKId",
      "outputs": [
        {
          "internalType": "uint256",
          "name": "",
          "type": "uint256"
        }
      ],
      "stateMutability": "view",
      "type": "function"
    },
    {
      "inputs": [
        {
          "internalType": "uint256",
          "name": "",
          "type": "uint256"
        }
      ],
      "name": "prescriptions",
      "outputs": [
        {
          "internalType": "uint256",
          "name": "id",
          "type": "uint256"
        },
        {
          "internalType": "address",
          "name": "doctorAddress",
          "type": "address"
        },
        {
          "internalType": "address",
          "name": "patientAddress",
          "type": "address"
        },
        {
          "internalType": "uint256",
          "name": "issueDate",
          "type": "uint256"
        },
        {
          "internalType": "string",
          "name": "diagnosis",
          "type": "string"
        },
        {
          "internalType": "bool",
          "name": "active",
          "type": "bool"
        },
        {
          "internalType": "bool",
          "name": "isAnonymous",
          "type": "bool"
        }
      ],
      "stateMutability": "view",
      "type": "function"
    },
    {
      "inputs": [
        {
          "internalType": "string",
          "name": "name",
          "type": "string"
        },
        {
          "internalType": "string",
          "name": "speciality",
          "type": "string"
        },
        {
          "internalType": "uint256",
          "name": "fees",
          "type": "uint256"
        }
      ],
      "name": "registerDoctor",
      "outputs": [],
      "stateMutability": "nonpayable",
      "type": "function"
    },
    {
      "inputs": [
        {
          "internalType": "string",
          "name": "name",
          "type": "string"
        }
      ],
      "name": "registerPatient",
      "outputs": [],
      "stateMutability": "nonpayable",
      "type": "function"
    },
    {
      "inputs": [
        {
          "internalType": "uint256",
          "name": "prescriptionId",
          "type": "uint256"
        }
      ],
      "name": "verifyPrescription",
      "outputs": [
        {
          "internalType": "bool",
          "name": "",
          "type": "bool"
        }
      ],
      "stateMutability": "view",
      "type": "function"
    },
    {
      "inputs": [
        {
          "internalType": "uint256",
          "name": "tokenAmount",
          "type": "uint256"
        }
      ],
      "name": "withdrawTokens",
      "outputs": [],
      "stateMutability": "nonpayable",
      "type": "function"
    },
    {
      "inputs": [],
      "name": "zkVerifier",
      "outputs": [
        {
          "internalType": "contract ZKPrescriptionVerifier",
          "name": "",
          "type": "address"
        }
      ],
      "stateMutability": "view",
      "type": "function"
    }
  ],
  "bytecode": "0x60806040523480156200001157600080fd5b50604051620042443803806200424483398181016040528101906200003791906200024f565b600073ffffffffffffffffffffffffffffffffffffffff168273ffffffffffffffffffffffffffffffffffffffff1603620000a9576040517f08c379a0000000000000000000000000000000000000000000000000000000008152600401620000a0906200031d565b60405180910390fd5b600073ffffffffffffffffffffffffffffffffffffffff168173ffffffffffffffffffffffffffffffffffffffff16036200011b576040517f08c379a00000000000000000000000000000000000000000000000000000000081526004016200011290620003b5565b60405180910390fd5b816000806101000a81548173ffffffffffffffffffffffffffffffffffffffff021916908373ffffffffffffffffffffffffffffffffffffffff16021790555080600160006101000a81548173ffffffffffffffffffffffffffffffffffffffff021916908373ffffffffffffffffffffffffffffffffffffffff16021790555033600260006101000a81548173ffffffffffffffffffffffffffffffffffffffff021916908373ffffffffffffffffffffffffffffffffffffffff1602179055505050620003d7565b600080fd5b600073ffffffffffffffffffffffffffffffffffffffff82169050919050565b60006200021782620001ea565b9050919050565b62000229816200020a565b81146200023557600080fd5b50565b60008151905062000249816200021e565b92915050565b60008060408385031215620002695762000268620001e5565b5b6000620002798582860162000238565b92505060206200028c8582860162000238565b9150509250929050565b600082825260208201905092915050565b7f4865616c7468546f6b656e20616464726573732063616e6e6f74206265207a6560008201527f726f000000000000000000000000000000000000000000000000000000000000602082015250565b60006200030560228362000296565b91506200031282620002a7565b604082019050919050565b600060208201905081810360008301526200033881620002f6565b9050919050565b7f5a4b566572696669657220616464726573732063616e6e6f74206265207a657260008201527f6f00000000000000000000000000000000000000000000000000000000000000602082015250565b60006200039d60218362000296565b9150620003aa826200033f565b604082019050919050565b60006020820190508181036000830152620003d0816200038e565b9050919050565b613e5d80620003e76000396000f3fe608060405234801561001057600080fd5b50600436106101215760003560e01c806387446b6e116100ad578063c6b0ac8511610071578063c6b0ac851461033c578063d6df096d1461035a578063ee424df514610378578063f106c81e146103a8578063fa4a2b00146103d857610121565b806387446b6e146102955780638da5cb5b146102b1578063a9583c22146102cf578063b1f8a65314610304578063b53e58d51461032057610121565b8063581f8765116100f4578063581f8765146101d95780635e1895091461020957806372bb073e1461023f57806382a7fa4a1461025b578063869c9eaf1461027957610121565b80630869cfbc14610126578063315a095d1461015757806331dfc91b1461017357806334cd2841146101a9575b600080fd5b610140600480360381019061013b91906124a6565b610408565b60405161014e929190612572565b60405180910390f35b610171600480360381019061016c91906125d8565b6104d4565b005b61018d600480360381019061018891906125d8565b6107d6565b6040516101a0979695949392919061262f565b60405180910390f35b6101c360048036038101906101be91906126a5565b6108fa565b6040516101d091906126e5565b60405180910390f35b6101f360048036038101906101ee91906125d8565b61092b565b6040516102009190612700565b60405180910390f35b610223600480360381019061021e91906125d8565b610e1d565b604051610236979695949392919061262f565b60405180910390f35b61025960048036038101906102549190612a0c565b611291565b005b610263611605565b60405161027091906126e5565b60405180910390f35b610293600480360381019061028e9190612a97565b61160b565b005b6102af60048036038101906102aa9190612ae0565b61171c565b005b6102b961191c565b6040516102c69190612b6b565b60405180910390f35b6102e960048036038101906102e491906124a6565b611942565b6040516102fb96959493929190612b86565b60405180910390f35b61031e600480360381019061031991906126a5565b611abb565b005b61033a60048036038101906103359190612eb9565b611e0d565b005b61034461225e565b6040516103519190612ff7565b60405180910390f35b610362612282565b60405161036f9190613033565b60405180910390f35b610392600480360381019061038d91906124a6565b6122a8565b60405161039f91906126e5565b60405180910390f35b6103c260048036038101906103bd91906124a6565b612385565b6040516103cf919061310c565b60405180910390f35b6103f260048036038101906103ed91906125d8565b61241c565b6040516103ff91906126e5565b60405180910390f35b60046020528060005260406000206000915090508060000160009054906101000a900473ffffffffffffffffffffffffffffffffffffffff16908060010180546104519061315d565b80601f016020809104026020016040519081016040528092919081815260200182805461047d9061315d565b80156104ca5780601f1061049f576101008083540402835291602001916104ca565b820191906000526020600020905b8154815290600101906020018083116104ad57829003601f168201915b5050505050905082565b600360003373ffffffffffffffffffffffffffffffffffffffff1673ffffffffffffffffffffffffffffffffffffffff16815260200190815260200160002060050160009054906101000a900460ff16610563576040517f08c379a000000000000000000000000000000000000000000000000000000000815260040161055a906131da565b60405180910390fd5b6000600360003373ffffffffffffffffffffffffffffffffffffffff1673ffffffffffffffffffffffffffffffffffffffff168152602001908152602001600020905081816004015410156105ed576040517f08c379a00000000000000000000000000000000000000000000000000000000081526004016105e490613246565b60405180910390fd5b60006064836105fc91906132c4565b90508282600401600082825461061291906132f5565b9250508190555060008054906101000a900473ffffffffffffffffffffffffffffffffffffffff1673ffffffffffffffffffffffffffffffffffffffff1663a9059cbb60008054906101000a900473ffffffffffffffffffffffffffffffffffffffff16856040518363ffffffff1660e01b8152600401610694929190613329565b6020604051808303816000875af11580156106b3573d6000803e3d6000fd5b505050506040513d601f19601f820116820180604052508101906106d7919061337e565b610716576040517f08c379a000000000000000000000000000000000000000000000000000000000815260040161070d906133f7565b60405180910390fd5b8160000160009054906101000a900473ffffffffffffffffffffffffffffffffffffffff1673ffffffffffffffffffffffffffffffffffffffff166108fc829081150290604051600060405180830381858888f19350505050158015610780573d6000803e3d6000fd5b503373ffffffffffffffffffffffffffffffffffffffff167fffe903c0abe6b2dbb2f3474ef43d7a3c1fca49e5a774453423ca8e1952aabffa84836040516107c9929190613417565b60405180910390a2505050565b60056020528060005260406000206000915090508060000154908060010160009054906101000a900473ffffffffffffffffffffffffffffffffffffffff16908060020160009054906101000a900473ffffffffffffffffffffffffffffffffffffffff16908060040154908060050180546108519061315d565b80601f016020809104026020016040519081016040528092919081815260200182805461087d9061315d565b80156108ca5780601f1061089f576101008083540402835291602001916108ca565b820191906000526020600020905b8154815290600101906020018083116108ad57829003601f168201915b5050505050908060060160009054906101000a900460ff16908060060160019054906101000a900460ff16905087565b6008602052816000526040600020818154811061091657600080fd5b90600052602060002001600091509150505481565b6000600654821115801561093f5750600082115b61097e576040517f08c379a00000000000000000000000000000000000000000000000000000000081526004016109759061348c565b60405180910390fd5b60006005600084815260200190815260200160002060405180610100016040529081600082015481526020016001820160009054906101000a900473ffffffffffffffffffffffffffffffffffffffff1673ffffffffffffffffffffffffffffffffffffffff1673ffffffffffffffffffffffffffffffffffffffff1681526020016002820160009054906101000a900473ffffffffffffffffffffffffffffffffffffffff1673ffffffffffffffffffffffffffffffffffffffff1673ffffffffffffffffffffffffffffffffffffffff16815260200160038201805480602002602001604051908101604052809291908181526020016000905b82821015610c6c5783829060005260206000209060040201604051806080016040529081600082018054610aad9061315d565b80601f0160208091040260200160405190810160405280929190818152602001828054610ad99061315d565b8015610b265780601f10610afb57610100808354040283529160200191610b26565b820191906000526020600020905b815481529060010190602001808311610b0957829003601f168201915b50505050508152602001600182018054610b3f9061315d565b80601f0160208091040260200160405190810160405280929190818152602001828054610b6b9061315d565b8015610bb85780601f10610b8d57610100808354040283529160200191610bb8565b820191906000526020600020905b815481529060010190602001808311610b9b57829003601f168201915b5050505050815260200160028201548152602001600382018054610bdb9061315d565b80601f0160208091040260200160405190810160405280929190818152602001828054610c079061315d565b8015610c545780601f10610c2957610100808354040283529160200191610c54565b820191906000526020600020905b815481529060010190602001808311610c3757829003601f168201915b50505050508152505081526020019060010190610a7a565b50505050815260200160048201548152602001600582018054610c8e9061315d565b80601f0160208091040260200160405190810160405280929190818152602001828054610cba9061315d565b8015610d075780601f10610cdc57610100808354040283529160200191610d07565b820191906000526020600020905b815481529060010190602001808311610cea57829003601f168201915b505050505081526020016006820160009054906101000a900460ff161515151581526020016006820160019054906101000a900460ff16151515158152505090508060e0015115610e0f57600060076000858152602001908152602001600020549050600160009054906101000a900473ffffffffffffffffffffffffffffffffffffffff1673ffffffffffffffffffffffffffffffffffffffff16638bfca714826040518263ffffffff1660e01b8152600401610dc591906126e5565b602060405180830381865afa158015610de2573d6000803e3d6000fd5b505050506040513d601f19601f82011682018060405250810190610e06919061337e565b92505050610e18565b8060c001519150505b919050565b60008060008060606000806006548811158015610e3a5750600088115b610e79576040517f08c379a0000000000000000000000000000000000000000000000000000000008152600401610e709061348c565b60405180910390fd5b6000600560008a815260200190815260200160002060405180610100016040529081600082015481526020016001820160009054906101000a900473ffffffffffffffffffffffffffffffffffffffff1673ffffffffffffffffffffffffffffffffffffffff1673ffffffffffffffffffffffffffffffffffffffff1681526020016002820160009054906101000a900473ffffffffffffffffffffffffffffffffffffffff1673ffffffffffffffffffffffffffffffffffffffff1673ffffffffffffffffffffffffffffffffffffffff16815260200160038201805480602002602001604051908101604052809291908181526020016000905b828210156111675783829060005260206000209060040201604051806080016040529081600082018054610fa89061315d565b80601f0160208091040260200160405190810160405280929190818152602001828054610fd49061315d565b80156110215780601f10610ff657610100808354040283529160200191611021565b820191906000526020600020905b81548152906001019060200180831161100457829003601f168201915b5050505050815260200160018201805461103a9061315d565b80601f01602080910402602001604051908101604052809291908181526020018280546110669061315d565b80156110b35780601f10611088576101008083540402835291602001916110b3565b820191906000526020600020905b81548152906001019060200180831161109657829003601f168201915b50505050508152602001600282015481526020016003820180546110d69061315d565b80601f01602080910402602001604051908101604052809291908181526020018280546111029061315d565b801561114f5780601f106111245761010080835404028352916020019161114f565b820191906000526020600020905b81548152906001019060200180831161113257829003601f168201915b50505050508152505081526020019060010190610f75565b505050508152602001600482015481526020016005820180546111899061315d565b80601f01602080910402602001604051908101604052809291908181526020018280546111b59061315d565b80156112025780601f106111d757610100808354040283529160200191611202565b820191906000526020600020905b8154815290600101906020018083116111e557829003601f168201915b505050505081526020016006820160009054906101000a900460ff161515151581526020016006820160019054906101000a900460ff1615151515815250509050806000015181602001518260e00151611260578260400151611263565b60005b83608001518460a001518560c001518660e00151975097509750975097509750975050919395979092949650565b600360003373ffffffffffffffffffffffffffffffffffffffff1673ffffffffffffffffffffffffffffffffffffffff16815260200190815260200160002060050160009054906101000a900460ff16611320576040517f08c379a0000000000000000000000000000000000000000000000000000000008152600401611317906131da565b60405180910390fd5b82600073ffffffffffffffffffffffffffffffffffffffff16600460008373ffffffffffffffffffffffffffffffffffffffff1673ffffffffffffffffffffffffffffffffffffffff16815260200190815260200160002060000160009054906101000a900473ffffffffffffffffffffffffffffffffffffffff1673ffffffffffffffffffffffffffffffffffffffff16036113f2576040517f08c379a00000000000000000000000000000000000000000000000000000000081526004016113e9906134f8565b60405180910390fd5b6006600081548092919061140590613518565b9190505550600060056000600654815260200190815260200160002090506006548160000181905550338160010160006101000a81548173ffffffffffffffffffffffffffffffffffffffff021916908373ffffffffffffffffffffffffffffffffffffffff160217905550848160020160006101000a81548173ffffffffffffffffffffffffffffffffffffffff021916908373ffffffffffffffffffffffffffffffffffffffff160217905550428160040181905550828160050190816114ce9190613702565b5060018160060160006101000a81548160ff02191690831515021790555060008160060160016101000a81548160ff02191690831515021790555060005b84518110156115be578160030185828151811061152c5761152b6137d4565b5b6020026020010151908060018154018082558091505060019003906000526020600020906004020160009091909190915060008201518160000190816115729190613702565b5060208201518160010190816115889190613702565b506040820151816002015560608201518160030190816115a89190613702565b50505080806115b690613518565b91505061150c565b507f271c79974d634e0645e988cdbe7a9156534689d0594e3bcac9b3ac1ef9e91dda6006543387866040516115f69493929190613803565b60405180910390a15050505050565b60065481565b600081511161164f576040517f08c379a00000000000000000000000000000000000000000000000000000000081526004016116469061389b565b60405180910390fd5b60405180604001604052803373ffffffffffffffffffffffffffffffffffffffff16815260200182815250600460003373ffffffffffffffffffffffffffffffffffffffff1673ffffffffffffffffffffffffffffffffffffffff16815260200190815260200160002060008201518160000160006101000a81548173ffffffffffffffffffffffffffffffffffffffff021916908373ffffffffffffffffffffffffffffffffffffffff16021790555060208201518160010190816117159190613702565b5090505050565b600360003373ffffffffffffffffffffffffffffffffffffffff1673ffffffffffffffffffffffffffffffffffffffff16815260200190815260200160002060050160009054906101000a900460ff16156117ac576040517f08c379a00000000000000000000000000000000000000000000000000000000081526004016117a390613907565b60405180910390fd5b6040518060c001604052803373ffffffffffffffffffffffffffffffffffffffff1681526020018481526020018381526020018281526020016000815260200160011515815250600360003373ffffffffffffffffffffffffffffffffffffffff1673ffffffffffffffffffffffffffffffffffffffff16815260200190815260200160002060008201518160000160006101000a81548173ffffffffffffffffffffffffffffffffffffffff021916908373ffffffffffffffffffffffffffffffffffffffff160217905550602082015181600101908161188e9190613702565b5060408201518160020190816118a49190613702565b50606082015181600301556080820151816004015560a08201518160050160006101000a81548160ff0219169083151502179055509050507f1f5e33d2573da99a901bca6b2c06d5f12b75dfd179bcbbe46a5216cf8349ee6b33848360405161190f93929190613927565b60405180910390a1505050565b600260009054906101000a900473ffffffffffffffffffffffffffffffffffffffff1681565b60036020528060005260406000206000915090508060000160009054906101000a900473ffffffffffffffffffffffffffffffffffffffff169080600101805461198b9061315d565b80601f01602080910402602001604051908101604052809291908181526020018280546119b79061315d565b8015611a045780601f106119d957610100808354040283529160200191611a04565b820191906000526020600020905b8154815290600101906020018083116119e757829003601f168201915b505050505090806002018054611a199061315d565b80601f0160208091040260200160405190810160405280929190818152602001828054611a459061315d565b8015611a925780601f10611a6757610100808354040283529160200191611a92565b820191906000526020600020905b815481529060010190602001808311611a7557829003601f168201915b5050505050908060030154908060040154908060050160009054906101000a900460ff16905086565b81600360008273ffffffffffffffffffffffffffffffffffffffff1673ffffffffffffffffffffffffffffffffffffffff16815260200190815260200160002060050160009054906101000a900460ff16611b4b576040517f08c379a0000000000000000000000000000000000000000000000000000000008152600401611b42906139d7565b60405180910390fd5b33600073ffffffffffffffffffffffffffffffffffffffff16600460008373ffffffffffffffffffffffffffffffffffffffff1673ffffffffffffffffffffffffffffffffffffffff16815260200190815260200160002060000160009054906101000a900473ffffffffffffffffffffffffffffffffffffffff1673ffffffffffffffffffffffffffffffffffffffff1603611c1d576040517f08c379a0000000000000000000000000000000000000000000000000000000008152600401611c14906134f8565b60405180910390fd5b6000600360008673ffffffffffffffffffffffffffffffffffffffff1673ffffffffffffffffffffffffffffffffffffffff16815260200190815260200160002090508060030154841015611ca7576040517f08c379a0000000000000000000000000000000000000000000000000000000008152600401611c9e90613a43565b60405180910390fd5b60008054906101000a900473ffffffffffffffffffffffffffffffffffffffff1673ffffffffffffffffffffffffffffffffffffffff166323b872dd3330876040518463ffffffff1660e01b8152600401611d0493929190613a63565b6020604051808303816000875af1158015611d23573d6000803e3d6000fd5b505050506040513d601f19601f82011682018060405250810190611d47919061337e565b611d86576040517f08c379a0000000000000000000000000000000000000000000000000000000008152600401611d7d906133f7565b60405180910390fd5b83816004016000828254611d9a9190613a9a565b925050819055508473ffffffffffffffffffffffffffffffffffffffff163373ffffffffffffffffffffffffffffffffffffffff167f45fdc265dc29885b9a485766b03e70978440d38c7c328ee0a14fa40c76c6af5486604051611dfe91906126e5565b60405180910390a35050505050565b600360003373ffffffffffffffffffffffffffffffffffffffff1673ffffffffffffffffffffffffffffffffffffffff16815260200190815260200160002060050160009054906101000a900460ff16611e9c576040517f08c379a0000000000000000000000000000000000000000000000000000000008152600401611e93906131da565b60405180910390fd5b600160009054906101000a900473ffffffffffffffffffffffffffffffffffffffff1673ffffffffffffffffffffffffffffffffffffffff1663f51d7083858585858a6040518663ffffffff1660e01b8152600401611eff959493929190613d58565b600060405180830381600087803b158015611f1957600080fd5b505af1158015611f2d573d6000803e3d6000fd5b5050505060066000815480929190611f4490613518565b9190505550600060056000600654815260200190815260200160002090506006548160000181905550338160010160006101000a81548173ffffffffffffffffffffffffffffffffffffffff021916908373ffffffffffffffffffffffffffffffffffffffff16021790555060008160020160006101000a81548173ffffffffffffffffffffffffffffffffffffffff021916908373ffffffffffffffffffffffffffffffffffffffff1602179055504281600401819055508681600501908161200e9190613702565b5060018160060160006101000a81548160ff02191690831515021790555060018160060160016101000a81548160ff02191690831515021790555060005b88518110156120fe578160030189828151811061206c5761206b6137d4565b5b6020026020010151908060018154018082558091505060019003906000526020600020906004020160009091909190915060008201518160000190816120b29190613702565b5060208201518160010190816120c89190613702565b506040820151816002015560608201518160030190816120e89190613702565b50505080806120f690613518565b91505061204c565b506000600160009054906101000a900473ffffffffffffffffffffffffffffffffffffffff1673ffffffffffffffffffffffffffffffffffffffff166382a7fa4a6040518163ffffffff1660e01b8152600401602060405180830381865afa15801561216e573d6000803e3d6000fd5b505050506040513d601f19601f820116820180604052508101906121929190613dc3565b90508060076000600654815260200190815260200160002081905550600860003373ffffffffffffffffffffffffffffffffffffffff1673ffffffffffffffffffffffffffffffffffffffff16815260200190815260200160002060065490806001815401808255809150506001900390600052602060002001600090919091909150557f67d18f98e5951f33f9a6c322b94a34c2f63cb34e577362cbc5f2d833153e85a1600654338360405161224b93929190613df0565b60405180910390a1505050505050505050565b60008054906101000a900473ffffffffffffffffffffffffffffffffffffffff1681565b600160009054906101000a900473ffffffffffffffffffffffffffffffffffffffff1681565b600081600360008273ffffffffffffffffffffffffffffffffffffffff1673ffffffffffffffffffffffffffffffffffffffff16815260200190815260200160002060050160009054906101000a900460ff1661233a576040517f08c379a0000000000000000000000000000000000000000000000000000000008152600401612331906139d7565b60405180910390fd5b600360008473ffffffffffffffffffffffffffffffffffffffff1673ffffffffffffffffffffffffffffffffffffffff16815260200190815260200160002060030154915050919050565b6060600860008373ffffffffffffffffffffffffffffffffffffffff1673ffffffffffffffffffffffffffffffffffffffff16815260200190815260200160002080548060200260200160405190810160405280929190818152602001828054801561241057602002820191906000526020600020905b8154815260200190600101908083116123fc575b50505050509050919050565b60076020528060005260406000206000915090505481565b6000604051905090565b600080fd5b600080fd5b600073ffffffffffffffffffffffffffffffffffffffff82169050919050565b600061247382612448565b9050919050565b61248381612468565b811461248e57600080fd5b50565b6000813590506124a08161247a565b92915050565b6000602082840312156124bc576124bb61243e565b5b60006124ca84828501612491565b91505092915050565b6124dc81612468565b82525050565b600081519050919050565b600082825260208201905092915050565b60005b8381101561251c578082015181840152602081019050612501565b60008484015250505050565b6000601f19601f8301169050919050565b6000612544826124e2565b61254e81856124ed565b935061255e8185602086016124fe565b61256781612528565b840191505092915050565b600060408201905061258760008301856124d3565b81810360208301526125998184612539565b90509392505050565b6000819050919050565b6125b5816125a2565b81146125c057600080fd5b50565b6000813590506125d2816125ac565b92915050565b6000602082840312156125ee576125ed61243e565b5b60006125fc848285016125c3565b91505092915050565b61260e816125a2565b82525050565b60008115159050919050565b61262981612614565b82525050565b600060e082019050612644600083018a612605565b61265160208301896124d3565b61265e60408301886124d3565b61266b6060830187612605565b818103608083015261267d8186612539565b905061268c60a0830185612620565b61269960c0830184612620565b98975050505050505050565b600080604083850312156126bc576126bb61243e565b5b60006126ca85828601612491565b92505060206126db858286016125c3565b9150509250929050565b60006020820190506126fa6000830184612605565b92915050565b60006020820190506127156000830184612620565b92915050565b600080fd5b7f4e487b7100000000000000000000000000000000000000000000000000000000600052604160045260246000fd5b61275882612528565b810181811067ffffffffffffffff8211171561277757612776612720565b5b80604052505050565b600061278a612434565b9050612796828261274f565b919050565b600067ffffffffffffffff8211156127b6576127b5612720565b5b602082029050602081019050919050565b600080fd5b600080fd5b600080fd5b600080fd5b600067ffffffffffffffff8211156127f6576127f5612720565b5b6127ff82612528565b9050602081019050919050565b82818337600083830152505050565b600061282e612829846127db565b612780565b90508281526020810184848401111561284a576128496127d6565b5b61285584828561280c565b509392505050565b600082601f8301126128725761287161271b565b5b813561288284826020860161281b565b91505092915050565b6000608082840312156128a1576128a06127cc565b5b6128ab6080612780565b9050600082013567ffffffffffffffff8111156128cb576128ca6127d1565b5b6128d78482850161285d565b600083015250602082013567ffffffffffffffff8111156128fb576128fa6127d1565b5b6129078482850161285d565b602083015250604061291b848285016125c3565b604083015250606082013567ffffffffffffffff81111561293f5761293e6127d1565b5b61294b8482850161285d565b60608301525092915050565b600061296a6129658461279b565b612780565b9050808382526020820190506020840283018581111561298d5761298c6127c7565b5b835b818110156129d457803567ffffffffffffffff8111156129b2576129b161271b565b5b8086016129bf898261288b565b8552602085019450505060208101905061298f565b5050509392505050565b600082601f8301126129f3576129f261271b565b5b8135612a03848260208601612957565b91505092915050565b600080600060608486031215612a2557612a2461243e565b5b6000612a3386828701612491565b935050602084013567ffffffffffffffff811115612a5457612a53612443565b5b612a60868287016129de565b925050604084013567ffffffffffffffff811115612a8157612a80612443565b5b612a8d8682870161285d565b9150509250925092565b600060208284031215612aad57612aac61243e565b5b600082013567ffffffffffffffff811115612acb57612aca612443565b5b612ad78482850161285d565b91505092915050565b600080600060608486031215612af957612af861243e565b5b600084013567ffffffffffffffff811115612b1757612b16612443565b5b612b238682870161285d565b935050602084013567ffffffffffffffff811115612b4457612b43612443565b5b612b508682870161285d565b9250506040612b61868287016125c3565b9150509250925092565b6000602082019050612b8060008301846124d3565b92915050565b600060c082019050612b9b60008301896124d3565b8181036020830152612bad8188612539565b90508181036040830152612bc18187612539565b9050612bd06060830186612605565b612bdd6080830185612605565b612bea60a0830184612620565b979650505050505050565b600067ffffffffffffffff821115612c1057612c0f612720565b5b602082029050919050565b6000612c2e612c2984612bf5565b612780565b90508060208402830185811115612c4857612c476127c7565b5b835b81811015612c715780612c5d88826125c3565b845260208401935050602081019050612c4a565b5050509392505050565b600082601f830112612c9057612c8f61271b565b5b6008612c9d848285612c1b565b91505092915050565b600067ffffffffffffffff821115612cc157612cc0612720565b5b602082029050919050565b6000612cdf612cda84612ca6565b612780565b90508060208402830185811115612cf957612cf86127c7565b5b835b81811015612d225780612d0e88826125c3565b845260208401935050602081019050612cfb565b5050509392505050565b600082601f830112612d4157612d4061271b565b5b6002612d4e848285612ccc565b91505092915050565b600067ffffffffffffffff821115612d7257612d71612720565b5b602082029050919050565b6000612d90612d8b84612d57565b612780565b90508060408402830185811115612daa57612da96127c7565b5b835b81811015612dd35780612dbf8882612d2c565b845260208401935050604081019050612dac565b5050509392505050565b600082601f830112612df257612df161271b565b5b6002612dff848285612d7d565b91505092915050565b600067ffffffffffffffff821115612e2357612e22612720565b5b602082029050919050565b6000612e41612e3c84612e08565b612780565b90508060208402830185811115612e5b57612e5a6127c7565b5b835b81811015612e845780612e7088826125c3565b845260208401935050602081019050612e5d565b5050509392505050565b600082601f830112612ea357612ea261271b565b5b6009612eb0848285612e2e565b91505092915050565b6000806000806000806000610360888a031215612ed957612ed861243e565b5b600088013567ffffffffffffffff811115612ef757612ef6612443565b5b612f038a828b016129de565b975050602088013567ffffffffffffffff811115612f2457612f23612443565b5b612f308a828b0161285d565b9650506040612f418a828b01612c7b565b955050610140612f538a828b01612d2c565b945050610180612f658a828b01612ddd565b935050610200612f778a828b01612d2c565b925050610240612f898a828b01612e8e565b91505092959891949750929550565b6000819050919050565b6000612fbd612fb8612fb384612448565b612f98565b612448565b9050919050565b6000612fcf82612fa2565b9050919050565b6000612fe182612fc4565b9050919050565b612ff181612fd6565b82525050565b600060208201905061300c6000830184612fe8565b92915050565b600061301d82612fc4565b9050919050565b61302d81613012565b82525050565b60006020820190506130486000830184613024565b92915050565b600081519050919050565b600082825260208201905092915050565b6000819050602082019050919050565b613083816125a2565b82525050565b6000613095838361307a565b60208301905092915050565b6000602082019050919050565b60006130b98261304e565b6130c38185613059565b93506130ce8361306a565b8060005b838110156130ff5781516130e68882613089565b97506130f1836130a1565b9250506001810190506130d2565b5085935050505092915050565b6000602082019050818103600083015261312681846130ae565b905092915050565b7f4e487b7100000000000000000000000000000000000000000000000000000000600052602260045260246000fd5b6000600282049050600182168061317557607f821691505b6020821081036131885761318761312e565b5b50919050565b7f4e6f74206120766572696669656420646f63746f720000000000000000000000600082015250565b60006131c46015836124ed565b91506131cf8261318e565b602082019050919050565b600060208201905081810360008301526131f3816131b7565b9050919050565b7f496e73756666696369656e7420746f6b656e2062616c616e6365000000000000600082015250565b6000613230601a836124ed565b915061323b826131fa565b602082019050919050565b6000602082019050818103600083015261325f81613223565b9050919050565b7f4e487b7100000000000000000000000000000000000000000000000000000000600052601260045260246000fd5b7f4e487b7100000000000000000000000000000000000000000000000000000000600052601160045260246000fd5b60006132cf826125a2565b91506132da836125a2565b9250826132ea576132e9613266565b5b828204905092915050565b6000613300826125a2565b915061330b836125a2565b925082820390508181111561332357613322613295565b5b92915050565b600060408201905061333e60008301856124d3565b61334b6020830184612605565b9392505050565b61335b81612614565b811461336657600080fd5b50565b60008151905061337881613352565b92915050565b6000602082840312156133945761339361243e565b5b60006133a284828501613369565b91505092915050565b7f546f6b656e207472616e73666572206661696c65640000000000000000000000600082015250565b60006133e16015836124ed565b91506133ec826133ab565b602082019050919050565b60006020820190508181036000830152613410816133d4565b9050919050565b600060408201905061342c6000830185612605565b6134396020830184612605565b9392505050565b7f496e76616c696420707265736372697074696f6e204944000000000000000000600082015250565b60006134766017836124ed565b915061348182613440565b602082019050919050565b600060208201905081810360008301526134a581613469565b9050919050565b7f50617469656e74206973206e6f74207265676973746572656400000000000000600082015250565b60006134e26019836124ed565b91506134ed826134ac565b602082019050919050565b60006020820190508181036000830152613511816134d5565b9050919050565b6000613523826125a2565b91507fffffffffffffffffffffffffffffffffffffffffffffffffffffffffffffffff820361355557613554613295565b5b600182019050919050565b60008190508160005260206000209050919050565b60006020601f8301049050919050565b600082821b905092915050565b6000600883026135c27fffffffffffffffffffffffffffffffffffffffffffffffffffffffffffffffff82613585565b6135cc8683613585565b95508019841693508086168417925050509392505050565b60006135ff6135fa6135f5846125a2565b612f98565b6125a2565b9050919050565b6000819050919050565b613619836135e4565b61362d61362582613606565b848454613592565b825550505050565b600090565b613642613635565b61364d818484613610565b505050565b5b818110156136715761366660008261363a565b600181019050613653565b5050565b601f8211156136b65761368781613560565b61369084613575565b8101602085101561369f578190505b6136b36136ab85613575565b830182613652565b50505b505050565b600082821c905092915050565b60006136d9600019846008026136bb565b1980831691505092915050565b60006136f283836136c8565b9150826002028217905092915050565b61370b826124e2565b67ffffffffffffffff81111561372457613723612720565b5b61372e825461315d565b613739828285613675565b600060209050601f83116001811461376c576000841561375a578287015190505b61376485826136e6565b8655506137cc565b601f19841661377a86613560565b60005b828110156137a25784890151825560018201915060208501945060208101905061377d565b868310156137bf57848901516137bb601f8916826136c8565b8355505b6001600288020188555050505b505050505050565b7f4e487b7100000000000000000000000000000000000000000000000000000000600052603260045260246000fd5b60006080820190506138186000830187612605565b61382560208301866124d3565b61383260408301856124d3565b81810360608301526138448184612539565b905095945050505050565b7f4e616d6520726571756972656400000000000000000000000000000000000000600082015250565b6000613885600d836124ed565b91506138908261384f565b602082019050919050565b600060208201905081810360008301526138b481613878565b9050919050565b7f446f63746f7220616c7265616479207265676973746572656400000000000000600082015250565b60006138f16019836124ed565b91506138fc826138bb565b602082019050919050565b60006020820190508181036000830152613920816138e4565b9050919050565b600060608201905061393c60008301866124d3565b818103602083015261394e8185612539565b905061395d6040830184612605565b949350505050565b7f446f63746f72206973206e6f742072656769737465726564206f72207665726960008201527f6669656400000000000000000000000000000000000000000000000000000000602082015250565b60006139c16024836124ed565b91506139cc82613965565b604082019050919050565b600060208201905081810360008301526139f0816139b4565b9050919050565b7f496e73756666696369656e74207061796d656e7420616d6f756e740000000000600082015250565b6000613a2d601b836124ed565b9150613a38826139f7565b602082019050919050565b60006020820190508181036000830152613a5c81613a20565b9050919050565b6000606082019050613a7860008301866124d3565b613a8560208301856124d3565b613a926040830184612605565b949350505050565b6000613aa5826125a2565b9150613ab0836125a2565b9250828201905080821115613ac857613ac7613295565b5b92915050565b600060029050919050565b600081905092915050565b6000819050919050565b6000602082019050919050565b613b0481613ace565b613b0e8184613ad9565b9250613b1982613ae4565b8060005b83811015613b4a578151613b318782613089565b9650613b3c83613aee565b925050600181019050613b1d565b505050505050565b600060029050919050565b600081905092915050565b6000819050919050565b600081905092915050565b613b8681613ace565b613b908184613b72565b9250613b9b82613ae4565b8060005b83811015613bcc578151613bb38782613089565b9650613bbe83613aee565b925050600181019050613b9f565b505050505050565b6000613be08383613b7d565b60408301905092915050565b6000602082019050919050565b613c0281613b52565b613c0c8184613b5d565b9250613c1782613b68565b8060005b83811015613c48578151613c2f8782613bd4565b9650613c3a83613bec565b925050600181019050613c1b565b505050505050565b600060099050919050565b600081905092915050565b6000819050919050565b6000602082019050919050565b613c8681613c50565b613c908184613c5b565b9250613c9b82613c66565b8060005b83811015613ccc578151613cb38782613089565b9650613cbe83613c70565b925050600181019050613c9f565b505050505050565b600060089050919050565b600081905092915050565b6000819050919050565b6000602082019050919050565b613d0a81613cd4565b613d148184613cdf565b9250613d1f82613cea565b8060005b83811015613d50578151613d378782613089565b9650613d4283613cf4565b925050600181019050613d23565b505050505050565b600061032082019050613d6e6000830188613afb565b613d7b6040830187613bf9565b613d8860c0830186613afb565b613d96610100830185613c7d565b613da4610220830184613d01565b9695505050505050565b600081519050613dbd816125ac565b92915050565b600060208284031215613dd957613dd861243e565b5b6000613de784828501613dae565b91505092915050565b6000606082019050613e056000830186612605565b613e1260208301856124d3565b613e1f6040830184612605565b94935050505056fea26469706673582212205d88462041c0c6197169380982b1e10de30480e49e478980809150260871cf9764736f6c63430008140033",
  "linkReferences": {},
  "deployedLinkReferences": {}
}