{
  "_format": "hh-sol-artifact-1",
  "contractName": "Verifier",
  "sourceName": "contracts/verifier.sol",
  "abi": [
    {
      "inputs": [
        {
          "components": [
            {
              "components": [
                {
                  "internalType": "uint256",
                  "name": "X",
                  "type": "uint256"
                },
                {
                  "internalType": "uint256",
                  "name": "Y",
                  "type": "uint256"
                }
              ],
              "internalType": "struct Pairing.G1Point",
              "name": "a",
              "type": "tuple"
            },
            {
              "components": [
                {
                  "internalType": "uint256[2]",
                  "name": "X",
                  "type": "uint256[2]"
                },
                {
                  "internalType": "uint256[2]",
                  "name": "Y",
                  "type": "uint256[2]"
                }
              ],
              "internalType": "struct Pairing.G2Point",
              "name": "b",
              "type": "tuple"
            },
            {
              "components": [
                {
                  "internalType": "uint256",
                  "name": "X",
                  "type": "uint256"
                },
                {
                  "internalType": "uint256",
                  "name": "Y",
                  "type": "uint256"
                }
              ],
              "internalType": "struct Pairing.G1Point",
              "name": "c",
              "type": "tuple"
            }
          ],
          "internalType": "struct Verifier.Proof",
          "name": "proof",
          "type": "tuple"
        },
        {
          "internalType": "uint256[9]",
          "name": "input",
          "type": "uint256[9]"
        }
      ],
      "name": "verifyTx",
      "outputs": [
        {
          "internalType": "bool",
          "name": "r",
          "type": "bool"
        }
      ],
      "stateMutability": "view",
      "type": "function"
    }
  ],
  "bytecode": "0x608060405234801561001057600080fd5b5061186e806100206000396000f3fe608060405234801561001057600080fd5b506004361061002b5760003560e01c806373d7ed6914610030575b600080fd5b61004a60048036038101906100459190611610565b610060565b604051610057919061166d565b60405180910390f35b600080600967ffffffffffffffff81111561007e5761007d6112ee565b5b6040519080825280602002602001820160405280156100ac5781602001602082028036833780820191505090505b50905060005b6009811015610105578381600981106100ce576100cd611688565b5b60200201518282815181106100e6576100e5611688565b5b60200260200101818152505080806100fd906116e6565b9150506100b2565b506000610112828661012d565b03610121576001915050610127565b60009150505b92915050565b6000807f30644e72e131a029b85045b68181585d2833e84879b9709143e1f593f00000019050600061015d6102c4565b905080608001515160018651610173919061172e565b1461017d57600080fd5b60006040518060400160405280600081526020016000815250905060005b865181101561023657838782815181106101b8576101b7611688565b5b6020026020010151106101ca57600080fd5b6102218261021c85608001516001856101e3919061172e565b815181106101f4576101f3611688565b5b60200260200101518a858151811061020f5761020e611688565b5b6020026020010151610a88565b610b2a565b9150808061022e906116e6565b91505061019b565b5061026081836080015160008151811061025357610252611688565b5b6020026020010151610b2a565b90506102a68560000151866020015161027884610bf2565b856040015161028a8a60400151610bf2565b876060015161029c8960000151610bf2565b8960200151610c97565b6102b657600193505050506102be565b600093505050505b92915050565b6102cc6111ba565b60405180604001604052807f1bfc162f3fedbe4caa2d9b8ca96070406d6fe963e06b1e7e11d7327f4e3a731181526020017f0480e5c7ab2a2916091d47a65119835d57e5c6ef0b2620e7e2eb7458c6eeb3188152508160000181905250604051806040016040528060405180604001604052807f19cf8651615ac85d102376bf94846fdf712cf65b1e1f7fb40d52b09775a2d04a81526020017f0dc9cdee2550d1148e71623b894062b51dcd1bd8e5fca9033d13289c22459b9b815250815260200160405180604001604052807f1d248feb9b195645289006a5df807322a1645be3652d5143804b2b4494ff8e3981526020017f115a6f3c5c50e7dc0fd3c54d15ce9977261bf9d8867e8dd7a08806198ce2f1b28152508152508160200181905250604051806040016040528060405180604001604052807f1e02e8ef502a62df1fb20eec60f18cefd0832438c7e535404de5d16f44c9359681526020017f165b277482c21782d89648e520e010cde9b55296d81fcf59013db069ee2c8821815250815260200160405180604001604052807f1f0408ed86346d3c858fe27d50c60a8946e8e7caae5254e49143624646a9ac3d81526020017f2a4a3f4f45ab782f4ffe1e5f6891a4907d0cc8cdf2dd4d96a649159e8468dc7c8152508152508160400181905250604051806040016040528060405180604001604052807f173f2d888a831f1749b7fd9538dbaf421013a64c053fdca81f38be5ff5cf490381526020017f1ee53a43d5150a708da56294ff06e11143bba13c37f8b43a8ee2f3226d510879815250815260200160405180604001604052807f1d1b4dc9d4bc1783582269726b71f9c06c35cc5bac8db2d709486117ba596df681526020017f1470bf702c71e6cc6d4c078b5c6c6abf71c184816c9cecedf189330ceeef8e988152508152508160600181905250600a67ffffffffffffffff811115610593576105926112ee565b5b6040519080825280602002602001820160405280156105cc57816020015b6105b9611201565b8152602001906001900390816105b15790505b50816080018190525060405180604001604052807f106f7924898d13e1f7012f2ff6994373068c33ba32a4b5638d9bd84c72dadb4b81526020017f1747b7de306e51f3b11678e8fa68d1c53fa9cf6dd6f35c106ac1e986a4cefdb4815250816080015160008151811061064257610641611688565b5b602002602001018190525060405180604001604052807f2619edfdf4cabf18ba98936cbaa62d81e2ba73752a305e0c0a7d9bf01c86ab7e81526020017f0645e3aaf152a2be38b1c13d1506da420c76d6fe1579b312d2ff9cec12a56e6081525081608001516001815181106106ba576106b9611688565b5b602002602001018190525060405180604001604052807f242816ca1f52b5c68c591ca1483ddcb8910d99813baea81c48ba54bdb0ce040781526020017f1872e844558fdd445b5e4b68214e87c0276661240edbc9bf5e080cf534ce825d815250816080015160028151811061073257610731611688565b5b602002602001018190525060405180604001604052807f2bbb9691391f4faa6d73847d845426e4099a63160f9ec5d0cd43ef369323ab2c81526020017f1e3eb329a51ec1fad6dc83aa07ef7a8d46a98da6b89a65f76179e094fd2331b381525081608001516003815181106107aa576107a9611688565b5b602002602001018190525060405180604001604052807f1d288c3757ed6e2549f3f6333b72318b8bc549838e513250da32359eca7dfa5381526020017f19285a80701c99928b44294e5de56ddb841a024aa0d58ab6a095d243ccd96521815250816080015160048151811061082257610821611688565b5b602002602001018190525060405180604001604052807f26fb406cc4073ed0852aa3dbc301e10612a8e3b59c552cac520606a5f3ac4ea181526020017f0f69aab0ff61e3d76ecb40eee94c3a9c8ad74fc613172051cad38b7bf3857547815250816080015160058151811061089a57610899611688565b5b602002602001018190525060405180604001604052807f19189e26ef3dfc21e3ee844d75acac0861902cb1bc2afaebbb09938c381b61e181526020017f1d6ba6446bc280dc37d5d158006f98d13476f37266fdb8aaa8f215d7c0a878f2815250816080015160068151811061091257610911611688565b5b602002602001018190525060405180604001604052807f0d69fcce763fd4bdaa3ab9f317a7e4de94d2a0907087deb795f7c7ff0baff6fd81526020017f1c50191bf0282d02a45abf0b31fe6e52db527389ae4409e4aa6d32adc4073360815250816080015160078151811061098a57610989611688565b5b602002602001018190525060405180604001604052807f23e3e01b0fdf46b2b284434ecd9be5c5c8b27c57838adf7cc929f1c9ef96fbac81526020017f110adc3d4b9a5131bcfa59061b0f320fe272f690ae20c4a07956b49c24ab389c8152508160800151600881518110610a0257610a01611688565b5b602002602001018190525060405180604001604052807f1a4934acbb68b467a5e6d625ecaed525d3e67792acf3571f2b3a6e45199eb39e81526020017f15c643f21f5a7532643b02f6c31014c3efabe320faca30bdd15f92cc5d8b56c48152508160800151600981518110610a7a57610a79611688565b5b602002602001018190525090565b610a90611201565b610a9861121b565b836000015181600060038110610ab157610ab0611688565b5b602002018181525050836020015181600160038110610ad357610ad2611688565b5b6020020181815250508281600260038110610af157610af0611688565b5b602002018181525050600060608360808460076107d05a03fa90508060008103610b1757fe5b5080610b2257600080fd5b505092915050565b610b32611201565b610b3a61123d565b836000015181600060048110610b5357610b52611688565b5b602002018181525050836020015181600160048110610b7557610b74611688565b5b602002018181525050826000015181600260048110610b9757610b96611688565b5b602002018181525050826020015181600360048110610bb957610bb8611688565b5b602002018181525050600060608360c08460066107d05a03fa90508060008103610bdf57fe5b5080610bea57600080fd5b505092915050565b610bfa611201565b60007f30644e72e131a029b85045b68181585d97816a916871ca8d3c208c16d87cfd47905060008360000151148015610c37575060008360200151145b15610c5b576040518060400160405280600081526020016000815250915050610c92565b604051806040016040528084600001518152602001828560200151610c809190611791565b83610c8b91906117c2565b8152509150505b919050565b600080600467ffffffffffffffff811115610cb557610cb46112ee565b5b604051908082528060200260200182016040528015610cee57816020015b610cdb611201565b815260200190600190039081610cd35790505b5090506000600467ffffffffffffffff811115610d0e57610d0d6112ee565b5b604051908082528060200260200182016040528015610d4757816020015b610d3461125f565b815260200190600190039081610d2c5790505b5090508a82600081518110610d5f57610d5e611688565b5b60200260200101819052508882600181518110610d7f57610d7e611688565b5b60200260200101819052508682600281518110610d9f57610d9e611688565b5b60200260200101819052508482600381518110610dbf57610dbe611688565b5b60200260200101819052508981600081518110610ddf57610dde611688565b5b60200260200101819052508781600181518110610dff57610dfe611688565b5b60200260200101819052508581600281518110610e1f57610e1e611688565b5b60200260200101819052508381600381518110610e3f57610e3e611688565b5b6020026020010181905250610e548282610e64565b9250505098975050505050505050565b60008151835114610e7457600080fd5b6000835190506000600682610e8991906117f6565b905060008167ffffffffffffffff811115610ea757610ea66112ee565b5b604051908082528060200260200182016040528015610ed55781602001602082028036833780820191505090505b50905060005b8381101561115a57868181518110610ef657610ef5611688565b5b602002602001015160000151826000600684610f1291906117f6565b610f1c919061172e565b81518110610f2d57610f2c611688565b5b602002602001018181525050868181518110610f4c57610f4b611688565b5b602002602001015160200151826001600684610f6891906117f6565b610f72919061172e565b81518110610f8357610f82611688565b5b602002602001018181525050858181518110610fa257610fa1611688565b5b602002602001015160000151600160028110610fc157610fc0611688565b5b6020020151826002600684610fd691906117f6565b610fe0919061172e565b81518110610ff157610ff0611688565b5b6020026020010181815250508581815181106110105761100f611688565b5b60200260200101516000015160006002811061102f5761102e611688565b5b602002015182600360068461104491906117f6565b61104e919061172e565b8151811061105f5761105e611688565b5b60200260200101818152505085818151811061107e5761107d611688565b5b60200260200101516020015160016002811061109d5761109c611688565b5b60200201518260046006846110b291906117f6565b6110bc919061172e565b815181106110cd576110cc611688565b5b6020026020010181815250508581815181106110ec576110eb611688565b5b60200260200101516020015160006002811061110b5761110a611688565b5b602002015182600560068461112091906117f6565b61112a919061172e565b8151811061113b5761113a611688565b5b6020026020010181815250508080611152906116e6565b915050610edb565b50611163611285565b6000602082602086026020860160086107d05a03fa9050806000810361118557fe5b508061119057600080fd5b6000826000600181106111a6576111a5611688565b5b602002015114159550505050505092915050565b6040518060a001604052806111cd611201565b81526020016111da61125f565b81526020016111e761125f565b81526020016111f461125f565b8152602001606081525090565b604051806040016040528060008152602001600081525090565b6040518060600160405280600390602082028036833780820191505090505090565b6040518060800160405280600490602082028036833780820191505090505090565b60405180604001604052806112726112a7565b815260200161127f6112a7565b81525090565b6040518060200160405280600190602082028036833780820191505090505090565b6040518060400160405280600290602082028036833780820191505090505090565b6000604051905090565b600080fd5b600080fd5b6000601f19601f8301169050919050565b7f4e487b7100000000000000000000000000000000000000000000000000000000600052604160045260246000fd5b611326826112dd565b810181811067ffffffffffffffff82111715611345576113446112ee565b5b80604052505050565b60006113586112c9565b9050611364828261131d565b919050565b6000819050919050565b61137c81611369565b811461138757600080fd5b50565b60008135905061139981611373565b92915050565b6000604082840312156113b5576113b46112d8565b5b6113bf604061134e565b905060006113cf8482850161138a565b60008301525060206113e38482850161138a565b60208301525092915050565b600080fd5b600067ffffffffffffffff82111561140f5761140e6112ee565b5b602082029050919050565b600080fd5b600061143261142d846113f4565b61134e565b9050806020840283018581111561144c5761144b61141a565b5b835b818110156114755780611461888261138a565b84526020840193505060208101905061144e565b5050509392505050565b600082601f830112611494576114936113ef565b5b60026114a184828561141f565b91505092915050565b6000608082840312156114c0576114bf6112d8565b5b6114ca604061134e565b905060006114da8482850161147f565b60008301525060406114ee8482850161147f565b60208301525092915050565b60006101008284031215611511576115106112d8565b5b61151b606061134e565b9050600061152b8482850161139f565b600083015250604061153f848285016114aa565b60208301525060c06115538482850161139f565b60408301525092915050565b600067ffffffffffffffff82111561157a576115796112ee565b5b602082029050919050565b60006115986115938461155f565b61134e565b905080602084028301858111156115b2576115b161141a565b5b835b818110156115db57806115c7888261138a565b8452602084019350506020810190506115b4565b5050509392505050565b600082601f8301126115fa576115f96113ef565b5b6009611607848285611585565b91505092915050565b6000806102208385031215611628576116276112d3565b5b6000611636858286016114fa565b925050610100611648858286016115e5565b9150509250929050565b60008115159050919050565b61166781611652565b82525050565b6000602082019050611682600083018461165e565b92915050565b7f4e487b7100000000000000000000000000000000000000000000000000000000600052603260045260246000fd5b7f4e487b7100000000000000000000000000000000000000000000000000000000600052601160045260246000fd5b60006116f182611369565b91507fffffffffffffffffffffffffffffffffffffffffffffffffffffffffffffffff8203611723576117226116b7565b5b600182019050919050565b600061173982611369565b915061174483611369565b925082820190508082111561175c5761175b6116b7565b5b92915050565b7f4e487b7100000000000000000000000000000000000000000000000000000000600052601260045260246000fd5b600061179c82611369565b91506117a783611369565b9250826117b7576117b6611762565b5b828206905092915050565b60006117cd82611369565b91506117d883611369565b92508282039050818111156117f0576117ef6116b7565b5b92915050565b600061180182611369565b915061180c83611369565b925082820261181a81611369565b91508282048414831517611831576118306116b7565b5b509291505056fea26469706673582212204f0ee4a3ace6a25eedd7471b53ec4d0a56ff1a09643c5c99444d9edaaab9702a64736f6c63430008140033",
  "linkReferences": {},
  "deployedLinkReferences": {}
}