{
  "_format": "hh-sol-artifact-1",
  "contractName": "ZKPrescriptionVerifier",
  "sourceName": "contracts/ZKPrescriptionVerifier.sol",
  "abi": [
    {
      "inputs": [
        {
          "internalType": "address",
          "name": "verifierAddress",
          "type": "address"
        }
      ],
      "stateMutability": "nonpayable",
      "type": "constructor"
    },
    {
      "anonymous": false,
      "inputs": [
        {
          "indexed": true,
          "internalType": "uint256",
          "name": "id",
          "type": "uint256"
        },
        {
          "indexed": false,
          "internalType": "uint256[8]",
          "name": "commitment",
          "type": "uint256[8]"
        }
      ],
      "name": "AnonymousPrescriptionSubmitted",
      "type": "event"
    },
    {
      "anonymous": false,
      "inputs": [
        {
          "indexed": true,
          "internalType": "uint256",
          "name": "id",
          "type": "uint256"
        },
        {
          "indexed": false,
          "internalType": "bool",
          "name": "valid",
          "type": "bool"
        }
      ],
      "name": "PrescriptionVerified",
      "type": "event"
    },
    {
      "inputs": [
        {
          "internalType": "uint256",
          "name": "",
          "type": "uint256"
        }
      ],
      "name": "anonymousPrescriptions",
      "outputs": [
        {
          "internalType": "uint256",
          "name": "timestamp",
          "type": "uint256"
        },
        {
          "internalType": "bool",
          "name": "verified",
          "type": "bool"
        }
      ],
      "stateMutability": "view",
      "type": "function"
    },
    {
      "inputs": [
        {
          "internalType": "uint256",
          "name": "prescriptionId",
          "type": "uint256"
        }
      ],
      "name": "getAnonymousPrescription",
      "outputs": [
        {
          "internalType": "uint256[8]",
          "name": "commitment",
          "type": "uint256[8]"
        },
        {
          "internalType": "uint256",
          "name": "timestamp",
          "type": "uint256"
        },
        {
          "internalType": "bool",
          "name": "verified",
          "type": "bool"
        }
      ],
      "stateMutability": "view",
      "type": "function"
    },
    {
      "inputs": [],
      "name": "prescriptionCounter",
      "outputs": [
        {
          "internalType": "uint256",
          "name": "",
          "type": "uint256"
        }
      ],
      "stateMutability": "view",
      "type": "function"
    },
    {
      "inputs": [
        {
          "internalType": "uint256[2]",
          "name": "a",
          "type": "uint256[2]"
        },
        {
          "internalType": "uint256[2][2]",
          "name": "b",
          "type": "uint256[2][2]"
        },
        {
          "internalType": "uint256[2]",
          "name": "c",
          "type": "uint256[2]"
        },
        {
          "internalType": "uint256[9]",
          "name": "input",
          "type": "uint256[9]"
        },
        {
          "internalType": "uint256[8]",
          "name": "commitment",
          "type": "uint256[8]"
        }
      ],
      "name": "submitAnonymousPrescription",
      "outputs": [],
      "stateMutability": "nonpayable",
      "type": "function"
    },
    {
      "inputs": [
        {
          "internalType": "uint256",
          "name": "",
          "type": "uint256"
        }
      ],
      "name": "usedCommitments",
      "outputs": [
        {
          "internalType": "bool",
          "name": "",
          "type": "bool"
        }
      ],
      "stateMutability": "view",
      "type": "function"
    },
    {
      "inputs": [
        {
          "internalType": "uint256",
          "name": "prescriptionId",
          "type": "uint256"
        }
      ],
      "name": "verifyAnonymousPrescription",
      "outputs": [
        {
          "internalType": "bool",
          "name": "",
          "type": "bool"
        }
      ],
      "stateMutability": "view",
      "type": "function"
    }
  ],
  "bytecode": "0x60806040523480156200001157600080fd5b5060405162001357380380620013578339818101604052810190620000379190620000e8565b806000806101000a81548173ffffffffffffffffffffffffffffffffffffffff021916908373ffffffffffffffffffffffffffffffffffffffff160217905550506200011a565b600080fd5b600073ffffffffffffffffffffffffffffffffffffffff82169050919050565b6000620000b08262000083565b9050919050565b620000c281620000a3565b8114620000ce57600080fd5b50565b600081519050620000e281620000b7565b92915050565b6000602082840312156200010157620001006200007e565b5b60006200011184828501620000d1565b91505092915050565b61122d806200012a6000396000f3fe608060405234801561001057600080fd5b50600436106100625760003560e01c80631098f6361461006757806382a7fa4a146100985780638bfca714146100b6578063d9a5d210146100e6578063f51d708314610118578063f83b4f6c14610134575b600080fd5b610081600480360381019061007c9190610840565b610164565b60405161008f929190610897565b60405180910390f35b6100a0610195565b6040516100ad91906108c0565b60405180910390f35b6100d060048036038101906100cb9190610840565b61019b565b6040516100dd91906108db565b60405180910390f35b61010060048036038101906100fb9190610840565b610219565b60405161010f939291906109a1565b60405180910390f35b610132600480360381019061012d9190610d35565b61031e565b005b61014e60048036038101906101499190610840565b61075b565b60405161015b91906108db565b60405180910390f35b60016020528060005260406000206000915090508060080154908060090160009054906101000a900460ff16905082565b60035481565b600060035482111580156101af5750600082115b6101ee576040517f08c379a00000000000000000000000000000000000000000000000000000000081526004016101e590610e10565b60405180910390fd5b6001600083815260200190815260200160002060090160009054906101000a900460ff169050919050565b61022161077b565b60008060035484111580156102365750600084115b610275576040517f08c379a000000000000000000000000000000000000000000000000000000000815260040161026c90610e10565b60405180910390fd5b600060016000868152602001908152602001600020604051806060016040529081600082016008806020026040519081016040528092919082600880156102d1576020028201915b8154815260200190600101908083116102bd575b50505050508152602001600882015481526020016009820160009054906101000a900460ff1615151515815250509050806000015181602001518260400151935093509350509193909250565b60008260006009811061033457610333610e30565b5b602002015190506002600082815260200190815260200160002060009054906101000a900460ff161561039c576040517f08c379a000000000000000000000000000000000000000000000000000000000815260040161039390610eab565b60405180910390fd5b6000604051806060016040528060405180604001604052808a6000600281106103c8576103c7610e30565b5b602002015181526020018a6001600281106103e6576103e5610e30565b5b60200201518152508152602001604051806040016040528060405180604001604052808b60006002811061041d5761041c610e30565b5b602002015160006002811061043557610434610e30565b5b602002015181526020018b60006002811061045357610452610e30565b5b602002015160016002811061046b5761046a610e30565b5b6020020151815250815260200160405180604001604052808b60016002811061049757610496610e30565b5b60200201516000600281106104af576104ae610e30565b5b602002015181526020018b6001600281106104cd576104cc610e30565b5b60200201516001600281106104e5576104e4610e30565b5b6020020151815250815250815260200160405180604001604052808860006002811061051457610513610e30565b5b602002015181526020018860016002811061053257610531610e30565b5b6020020151815250815250905060008060009054906101000a900473ffffffffffffffffffffffffffffffffffffffff1673ffffffffffffffffffffffffffffffffffffffff166373d7ed6983876040518363ffffffff1660e01b815260040161059d929190611074565b602060405180830381865afa1580156105ba573d6000803e3d6000fd5b505050506040513d601f19601f820116820180604052508101906105de91906110cb565b905080610620576040517f08c379a000000000000000000000000000000000000000000000000000000000815260040161061790611144565b60405180910390fd5b6003600081548092919061063390611193565b919050555060405180606001604052808581526020014281526020016001151581525060016000600354815260200190815260200160002060008201518160000190600861068292919061079e565b506020820151816008015560408201518160090160006101000a81548160ff02191690831515021790555090505060016002600085815260200190815260200160002060006101000a81548160ff0219169083151502179055506003547fe9b4d0e264127de5ae9762cffa525495147538dfeba7cb67436e0407474047578560405161070e91906111db565b60405180910390a26003547f8179cb210440c13e58f65868bbb3d0c723b9dd580ec7c950b0cf535c1ffb886b600160405161074991906108db565b60405180910390a25050505050505050565b60026020528060005260406000206000915054906101000a900460ff1681565b604051806101000160405280600890602082028036833780820191505090505090565b82600881019282156107cd579160200282015b828111156107cc5782518255916020019190600101906107b1565b5b5090506107da91906107de565b5090565b5b808211156107f75760008160009055506001016107df565b5090565b6000604051905090565b600080fd5b6000819050919050565b61081d8161080a565b811461082857600080fd5b50565b60008135905061083a81610814565b92915050565b60006020828403121561085657610855610805565b5b60006108648482850161082b565b91505092915050565b6108768161080a565b82525050565b60008115159050919050565b6108918161087c565b82525050565b60006040820190506108ac600083018561086d565b6108b96020830184610888565b9392505050565b60006020820190506108d5600083018461086d565b92915050565b60006020820190506108f06000830184610888565b92915050565b600060089050919050565b600081905092915050565b6000819050919050565b61091f8161080a565b82525050565b60006109318383610916565b60208301905092915050565b6000602082019050919050565b610953816108f6565b61095d8184610901565b92506109688261090c565b8060005b838110156109995781516109808782610925565b965061098b8361093d565b92505060018101905061096c565b505050505050565b6000610140820190506109b7600083018661094a565b6109c561010083018561086d565b6109d3610120830184610888565b949350505050565b600080fd5b6000601f19601f8301169050919050565b7f4e487b7100000000000000000000000000000000000000000000000000000000600052604160045260246000fd5b610a29826109e0565b810181811067ffffffffffffffff82111715610a4857610a476109f1565b5b80604052505050565b6000610a5b6107fb565b9050610a678282610a20565b919050565b600067ffffffffffffffff821115610a8757610a866109f1565b5b602082029050919050565b600080fd5b6000610aaa610aa584610a6c565b610a51565b90508060208402830185811115610ac457610ac3610a92565b5b835b81811015610aed5780610ad9888261082b565b845260208401935050602081019050610ac6565b5050509392505050565b600082601f830112610b0c57610b0b6109db565b5b6002610b19848285610a97565b91505092915050565b600067ffffffffffffffff821115610b3d57610b3c6109f1565b5b602082029050919050565b6000610b5b610b5684610b22565b610a51565b90508060408402830185811115610b7557610b74610a92565b5b835b81811015610b9e5780610b8a8882610af7565b845260208401935050604081019050610b77565b5050509392505050565b600082601f830112610bbd57610bbc6109db565b5b6002610bca848285610b48565b91505092915050565b600067ffffffffffffffff821115610bee57610bed6109f1565b5b602082029050919050565b6000610c0c610c0784610bd3565b610a51565b90508060208402830185811115610c2657610c25610a92565b5b835b81811015610c4f5780610c3b888261082b565b845260208401935050602081019050610c28565b5050509392505050565b600082601f830112610c6e57610c6d6109db565b5b6009610c7b848285610bf9565b91505092915050565b600067ffffffffffffffff821115610c9f57610c9e6109f1565b5b602082029050919050565b6000610cbd610cb884610c84565b610a51565b90508060208402830185811115610cd757610cd6610a92565b5b835b81811015610d005780610cec888261082b565b845260208401935050602081019050610cd9565b5050509392505050565b600082601f830112610d1f57610d1e6109db565b5b6008610d2c848285610caa565b91505092915050565b60008060008060006103208688031215610d5257610d51610805565b5b6000610d6088828901610af7565b9550506040610d7188828901610ba8565b94505060c0610d8288828901610af7565b935050610100610d9488828901610c59565b925050610220610da688828901610d0a565b9150509295509295909350565b600082825260208201905092915050565b7f496e76616c696420707265736372697074696f6e204944000000000000000000600082015250565b6000610dfa601783610db3565b9150610e0582610dc4565b602082019050919050565b60006020820190508181036000830152610e2981610ded565b9050919050565b7f4e487b7100000000000000000000000000000000000000000000000000000000600052603260045260246000fd5b7f436f6d6d69746d656e7420616c72656164792075736564000000000000000000600082015250565b6000610e95601783610db3565b9150610ea082610e5f565b602082019050919050565b60006020820190508181036000830152610ec481610e88565b9050919050565b604082016000820151610ee16000850182610916565b506020820151610ef46020850182610916565b50505050565b600060029050919050565b600081905092915050565b6000819050919050565b6000602082019050919050565b610f3081610efa565b610f3a8184610f05565b9250610f4582610f10565b8060005b83811015610f76578151610f5d8782610925565b9650610f6883610f1a565b925050600181019050610f49565b505050505050565b608082016000820151610f946000850182610f27565b506020820151610fa76040850182610f27565b50505050565b61010082016000820151610fc46000850182610ecb565b506020820151610fd76040850182610f7e565b506040820151610fea60c0850182610ecb565b50505050565b600060099050919050565b600081905092915050565b6000819050919050565b6000602082019050919050565b61102681610ff0565b6110308184610ffb565b925061103b82611006565b8060005b8381101561106c5781516110538782610925565b965061105e83611010565b92505060018101905061103f565b505050505050565b60006102208201905061108a6000830185610fad565b61109861010083018461101d565b9392505050565b6110a88161087c565b81146110b357600080fd5b50565b6000815190506110c58161109f565b92915050565b6000602082840312156110e1576110e0610805565b5b60006110ef848285016110b6565b91505092915050565b7f496e76616c6964207a65726f2d6b6e6f776c656467652070726f6f6600000000600082015250565b600061112e601c83610db3565b9150611139826110f8565b602082019050919050565b6000602082019050818103600083015261115d81611121565b9050919050565b7f4e487b7100000000000000000000000000000000000000000000000000000000600052601160045260246000fd5b600061119e8261080a565b91507fffffffffffffffffffffffffffffffffffffffffffffffffffffffffffffffff82036111d0576111cf611164565b5b600182019050919050565b6000610100820190506111f1600083018461094a565b9291505056fea26469706673582212201f3d6d64cd874e756fe710992bacf801c0d8fe700f04f4d8a4a12ea5c727af3d64736f6c63430008140033",
  "linkReferences": {},
  "deployedLinkReferences": {}
}